{
  "contractName": "Farmer",
  "abi": [
    {
      "inputs": [],
      "stateMutability": "nonpayable",
      "type": "constructor"
    },
    {
      "anonymous": false,
      "inputs": [
        {
          "indexed": false,
          "internalType": "string",
          "name": "rawProduct",
          "type": "string"
        },
        {
          "indexed": true,
          "internalType": "address",
          "name": "farmer",
          "type": "address"
        },
        {
          "indexed": false,
          "internalType": "uint256",
          "name": "addProductTime",
          "type": "uint256"
        }
      ],
      "name": "AddRawProduct",
      "type": "event"
    },
    {
      "anonymous": false,
      "inputs": [
        {
          "indexed": false,
          "internalType": "string",
          "name": "name",
          "type": "string"
        },
        {
          "indexed": false,
          "internalType": "string",
          "name": "location",
          "type": "string"
        },
        {
          "indexed": false,
          "internalType": "string",
          "name": "role",
          "type": "string"
        },
        {
          "indexed": true,
          "internalType": "address",
          "name": "stakeHolder",
          "type": "address"
        },
        {
          "indexed": false,
          "internalType": "uint256",
          "name": "registerTime",
          "type": "uint256"
        }
      ],
      "name": "Register",
      "type": "event"
    },
    {
      "anonymous": false,
      "inputs": [
        {
          "indexed": false,
          "internalType": "string",
          "name": "name",
          "type": "string"
        },
        {
          "indexed": false,
          "internalType": "string",
          "name": "location",
          "type": "string"
        },
        {
          "indexed": false,
          "internalType": "string",
          "name": "role",
          "type": "string"
        },
        {
          "indexed": false,
          "internalType": "string[]",
          "name": "rawProduct",
          "type": "string[]"
        },
        {
          "indexed": true,
          "internalType": "address",
          "name": "Farmer",
          "type": "address"
        },
        {
          "indexed": false,
          "internalType": "uint256",
          "name": "registerTime",
          "type": "uint256"
        }
      ],
      "name": "RegisterFarmer",
      "type": "event"
    },
    {
      "anonymous": false,
      "inputs": [
        {
          "indexed": true,
          "internalType": "address",
          "name": "admin",
          "type": "address"
        },
        {
          "indexed": true,
          "internalType": "address",
          "name": "verifier",
          "type": "address"
        },
        {
          "indexed": false,
          "internalType": "uint256",
          "name": "verifyTime",
          "type": "uint256"
        }
      ],
      "name": "Verify",
      "type": "event"
    },
    {
      "inputs": [
        {
          "internalType": "address",
          "name": "",
          "type": "address"
        },
        {
          "internalType": "uint256",
          "name": "",
          "type": "uint256"
        }
      ],
      "name": "_farmerRawProducts",
      "outputs": [
        {
          "internalType": "string",
          "name": "",
          "type": "string"
        }
      ],
      "stateMutability": "view",
      "type": "function",
      "constant": true
    },
    {
      "inputs": [
        {
          "internalType": "string",
          "name": "",
          "type": "string"
        },
        {
          "internalType": "uint256",
          "name": "",
          "type": "uint256"
        }
      ],
      "name": "_rawProductFarmers",
      "outputs": [
        {
          "internalType": "address",
          "name": "",
          "type": "address"
        }
      ],
      "stateMutability": "view",
      "type": "function",
      "constant": true
    },
    {
      "inputs": [],
      "name": "admin",
      "outputs": [
        {
          "internalType": "address",
          "name": "",
          "type": "address"
        }
      ],
      "stateMutability": "view",
      "type": "function",
      "constant": true
    },
    {
      "inputs": [
        {
          "internalType": "address",
          "name": "_id",
          "type": "address"
        }
      ],
      "name": "get",
      "outputs": [
        {
          "components": [
            {
              "internalType": "address",
              "name": "id",
              "type": "address"
            },
            {
              "internalType": "string",
              "name": "name",
              "type": "string"
            },
            {
              "internalType": "string",
              "name": "location",
              "type": "string"
            },
            {
              "internalType": "string",
              "name": "role",
              "type": "string"
            },
            {
              "internalType": "bool",
              "name": "isVerified",
              "type": "bool"
            }
          ],
          "internalType": "struct Stakeholder.stakeholder",
          "name": "",
          "type": "tuple"
        }
      ],
      "stateMutability": "view",
      "type": "function",
      "constant": true
    },
    {
      "inputs": [],
      "name": "getAddresses",
      "outputs": [
        {
          "internalType": "address[]",
          "name": "",
          "type": "address[]"
        }
      ],
      "stateMutability": "view",
      "type": "function",
      "constant": true
    },
    {
      "inputs": [
        {
          "internalType": "address",
          "name": "_id",
          "type": "address"
        }
      ],
      "name": "getRole",
      "outputs": [
        {
          "internalType": "string",
          "name": "",
          "type": "string"
        }
      ],
      "stateMutability": "view",
      "type": "function",
      "constant": true
    },
    {
      "inputs": [
        {
          "internalType": "address",
          "name": "_account",
          "type": "address"
        }
      ],
      "name": "isAdmin",
      "outputs": [
        {
          "internalType": "bool",
          "name": "",
          "type": "bool"
        }
      ],
      "stateMutability": "view",
      "type": "function",
      "constant": true
    },
    {
      "inputs": [
        {
          "internalType": "address",
          "name": "_owner",
          "type": "address"
        },
        {
          "internalType": "address",
          "name": "_operator",
          "type": "address"
        }
      ],
      "name": "isApprovedForAll",
      "outputs": [
        {
          "internalType": "bool",
          "name": "",
          "type": "bool"
        }
      ],
      "stateMutability": "view",
      "type": "function",
      "constant": true
    },
    {
      "inputs": [
        {
          "internalType": "address",
          "name": "_id",
          "type": "address"
        }
      ],
      "name": "isVerified",
      "outputs": [
        {
          "internalType": "bool",
          "name": "",
          "type": "bool"
        }
      ],
      "stateMutability": "view",
      "type": "function",
      "constant": true
    },
    {
      "inputs": [
        {
          "internalType": "string",
          "name": "_name",
          "type": "string"
        },
        {
          "internalType": "string",
          "name": "_location",
          "type": "string"
        },
        {
          "internalType": "string",
          "name": "_role",
          "type": "string"
        }
      ],
      "name": "register",
      "outputs": [
        {
          "internalType": "bool",
          "name": "",
          "type": "bool"
        }
      ],
      "stateMutability": "nonpayable",
      "type": "function"
    },
    {
      "inputs": [
        {
          "internalType": "address",
          "name": "_operator",
          "type": "address"
        },
        {
          "internalType": "bool",
          "name": "_approved",
          "type": "bool"
        }
      ],
      "name": "setApprovalForAll",
      "outputs": [
        {
          "internalType": "bool",
          "name": "",
          "type": "bool"
        }
      ],
      "stateMutability": "nonpayable",
      "type": "function"
    },
    {
      "inputs": [
        {
          "internalType": "address",
          "name": "_from",
          "type": "address"
        },
        {
          "internalType": "address",
          "name": "_to",
          "type": "address"
        },
        {
          "internalType": "uint256",
          "name": "_productId",
          "type": "uint256"
        }
      ],
      "name": "transferFrom",
      "outputs": [
        {
          "internalType": "bool",
          "name": "",
          "type": "bool"
        }
      ],
      "stateMutability": "nonpayable",
      "type": "function"
    },
    {
      "inputs": [
        {
          "internalType": "address",
          "name": "_id",
          "type": "address"
        }
      ],
      "name": "verify",
      "outputs": [
        {
          "internalType": "bool",
          "name": "",
          "type": "bool"
        }
      ],
      "stateMutability": "nonpayable",
      "type": "function"
    },
    {
      "inputs": [
        {
          "internalType": "string",
          "name": "_name",
          "type": "string"
        },
        {
          "internalType": "string",
          "name": "_location",
          "type": "string"
        },
        {
          "internalType": "string",
          "name": "_role",
          "type": "string"
        },
        {
          "internalType": "string[]",
          "name": "_rawProducts",
          "type": "string[]"
        }
      ],
      "name": "registerFarmer",
      "outputs": [
        {
          "internalType": "bool",
          "name": "",
          "type": "bool"
        }
      ],
      "stateMutability": "nonpayable",
      "type": "function"
    },
    {
      "inputs": [
        {
          "internalType": "string",
          "name": "_rawProduct",
          "type": "string"
        }
      ],
      "name": "addRawProduct",
      "outputs": [
        {
          "internalType": "bool",
          "name": "",
          "type": "bool"
        }
      ],
      "stateMutability": "nonpayable",
      "type": "function"
    },
    {
      "inputs": [
        {
          "internalType": "address",
          "name": "_id",
          "type": "address"
        }
      ],
      "name": "getFarmer",
      "outputs": [
        {
          "components": [
            {
              "internalType": "address",
              "name": "id",
              "type": "address"
            },
            {
              "internalType": "string",
              "name": "name",
              "type": "string"
            },
            {
              "internalType": "string",
              "name": "location",
              "type": "string"
            },
            {
              "internalType": "string",
              "name": "role",
              "type": "string"
            },
            {
              "internalType": "bool",
              "name": "isVerified",
              "type": "bool"
            }
          ],
          "internalType": "struct Stakeholder.stakeholder",
          "name": "farmer",
          "type": "tuple"
        },
        {
          "internalType": "string[]",
          "name": "rawProducts",
          "type": "string[]"
        }
      ],
      "stateMutability": "view",
      "type": "function",
      "constant": true
    },
    {
      "inputs": [
        {
          "internalType": "string",
          "name": "_rawProduct",
          "type": "string"
        }
      ],
      "name": "getRawProductFarmers",
      "outputs": [
        {
          "internalType": "address[]",
          "name": "",
          "type": "address[]"
        }
      ],
      "stateMutability": "view",
      "type": "function",
      "constant": true
    }
  ],
  "bytecode": "0x608060405234801561001057600080fd5b5033806000806101000a81548173ffffffffffffffffffffffffffffffffffffffff021916908373ffffffffffffffffffffffffffffffffffffffff1602179055505061317c806100626000396000f3fe608060405234801561001057600080fd5b506004361061010b5760003560e01c8063880f8fd7116100a2578063b9209e3311610071578063b9209e331461033e578063c2bc2efc1461036e578063e7609c161461039e578063e985e9c5146103cf578063f851a440146103ff5761010b565b8063880f8fd714610290578063a22cb465146102c0578063a39fac12146102f0578063af8f44cc1461030e5761010b565b8063518cc0b3116100de578063518cc0b3146101d057806363a9c3d7146102005780637bb08f33146102305780638531358f146102605761010b565b806323b872dd1461011057806324d7806c1461014057806344276733146101705780634cd08d03146101a0575b600080fd5b61012a6004803603810190610125919061217b565b61041d565b6040516101379190612b48565b60405180910390f35b61015a60048036038101906101559190612116565b6106d0565b6040516101679190612b48565b60405180910390f35b61018a60048036038101906101859190612116565b610729565b6040516101979190612b63565b60405180910390f35b6101ba60048036038101906101b59190612283565b6107fd565b6040516101c79190612b48565b60405180910390f35b6101ea60048036038101906101e59190612206565b610ad1565b6040516101f79190612b63565b60405180910390f35b61021a60048036038101906102159190612116565b610b8a565b6040516102279190612b48565b60405180910390f35b61024a6004803603810190610245919061231a565b610cad565b6040516102579190612b48565b60405180910390f35b61027a600480360381019061027591906123dd565b6110b7565b6040516102879190612b0b565b60405180910390f35b6102aa60048036038101906102a59190612242565b61111b565b6040516102b79190612b48565b60405180910390f35b6102da60048036038101906102d591906121ca565b6113ef565b6040516102e79190612b48565b60405180910390f35b6102f861156e565b6040516103059190612b26565b60405180910390f35b61032860048036038101906103239190612242565b6115fc565b6040516103359190612b26565b60405180910390f35b61035860048036038101906103539190612116565b6116a8565b6040516103659190612b48565b60405180910390f35b61038860048036038101906103839190612116565b611701565b6040516103959190612d9e565b60405180910390f35b6103b860048036038101906103b39190612116565b611aec565b6040516103c6929190612dc0565b60405180910390f35b6103e960048036038101906103e4919061213f565b611d82565b6040516103f69190612b48565b60405180910390f35b610407611e16565b6040516104149190612b0b565b60405180910390f35b600083826000600260008473ffffffffffffffffffffffffffffffffffffffff1673ffffffffffffffffffffffffffffffffffffffff168152602001908152602001600020600083815260200190815260200160002060009054906101000a900460ff169050600061048f8433611d82565b806104c557508373ffffffffffffffffffffffffffffffffffffffff163373ffffffffffffffffffffffffffffffffffffffff16145b90508180156104d15750805b610510576040517f08c379a000000000000000000000000000000000000000000000000000000000815260040161050790612d5e565b60405180910390fd5b8673ffffffffffffffffffffffffffffffffffffffff168873ffffffffffffffffffffffffffffffffffffffff16141561057f576040517f08c379a000000000000000000000000000000000000000000000000000000000815260040161057690612d1e565b60405180910390fd5b600073ffffffffffffffffffffffffffffffffffffffff168773ffffffffffffffffffffffffffffffffffffffff1614156105ef576040517f08c379a00000000000000000000000000000000000000000000000000000000081526004016105e690612cde565b60405180910390fd5b6000600260008a73ffffffffffffffffffffffffffffffffffffffff1673ffffffffffffffffffffffffffffffffffffffff168152602001908152602001600020600088815260200190815260200160002060006101000a81548160ff0219169083151502179055506001600260008973ffffffffffffffffffffffffffffffffffffffff1673ffffffffffffffffffffffffffffffffffffffff168152602001908152602001600020600088815260200190815260200160002060006101000a81548160ff02191690831515021790555060019450505050509392505050565b60008060009054906101000a900473ffffffffffffffffffffffffffffffffffffffff1673ffffffffffffffffffffffffffffffffffffffff168273ffffffffffffffffffffffffffffffffffffffff16149050919050565b6060600160008373ffffffffffffffffffffffffffffffffffffffff1673ffffffffffffffffffffffffffffffffffffffff168152602001908152602001600020600301805461077890612fe8565b80601f01602080910402602001604051908101604052809291908181526020018280546107a490612fe8565b80156107f15780601f106107c6576101008083540402835291602001916107f1565b820191906000526020600020905b8154815290600101906020018083116107d457829003601f168201915b50505050509050919050565b60008073ffffffffffffffffffffffffffffffffffffffff16600160003373ffffffffffffffffffffffffffffffffffffffff1673ffffffffffffffffffffffffffffffffffffffff16815260200190815260200160002060000160009054906101000a900473ffffffffffffffffffffffffffffffffffffffff1673ffffffffffffffffffffffffffffffffffffffff16146108cf576040517f08c379a00000000000000000000000000000000000000000000000000000000081526004016108c690612d3e565b60405180910390fd5b6040518060a001604052803373ffffffffffffffffffffffffffffffffffffffff16815260200185815260200184815260200183815260200160001515815250600160003373ffffffffffffffffffffffffffffffffffffffff1673ffffffffffffffffffffffffffffffffffffffff16815260200190815260200160002060008201518160000160006101000a81548173ffffffffffffffffffffffffffffffffffffffff021916908373ffffffffffffffffffffffffffffffffffffffff16021790555060208201518160010190805190602001906109b1929190611e3a565b5060408201518160020190805190602001906109ce929190611e3a565b5060608201518160030190805190602001906109eb929190611e3a565b5060808201518160040160006101000a81548160ff0219169083151502179055509050506004339080600181540180825580915050600190039060005260206000200160009091909190916101000a81548173ffffffffffffffffffffffffffffffffffffffff021916908373ffffffffffffffffffffffffffffffffffffffff1602179055503373ffffffffffffffffffffffffffffffffffffffff167f9cf6365b2c5ba4fb1ce1508411adce9c5fb9989ac8ff857bdc8872e010c42f4385858542604051610abe9493929190612bf4565b60405180910390a2600190509392505050565b60056020528160005260406000208181548110610aed57600080fd5b90600052602060002001600091509150508054610b0990612fe8565b80601f0160208091040260200160405190810160405280929190818152602001828054610b3590612fe8565b8015610b825780601f10610b5757610100808354040283529160200191610b82565b820191906000526020600020905b815481529060010190602001808311610b6557829003601f168201915b505050505081565b60008060009054906101000a900473ffffffffffffffffffffffffffffffffffffffff1673ffffffffffffffffffffffffffffffffffffffff163373ffffffffffffffffffffffffffffffffffffffff1614610be557600080fd5b60018060008473ffffffffffffffffffffffffffffffffffffffff1673ffffffffffffffffffffffffffffffffffffffff16815260200190815260200160002060040160006101000a81548160ff0219169083151502179055508173ffffffffffffffffffffffffffffffffffffffff163373ffffffffffffffffffffffffffffffffffffffff167f4aa983eb91154bcac20e42c69efe6948891ea1fcf772b3ff6507f41309a0f33e42604051610c9c9190612df7565b60405180910390a360019050919050565b60008073ffffffffffffffffffffffffffffffffffffffff16600160003373ffffffffffffffffffffffffffffffffffffffff1673ffffffffffffffffffffffffffffffffffffffff16815260200190815260200160002060000160009054906101000a900473ffffffffffffffffffffffffffffffffffffffff1673ffffffffffffffffffffffffffffffffffffffff1614610d7f576040517f08c379a0000000000000000000000000000000000000000000000000000000008152600401610d7690612c9e565b60405180910390fd5b6040518060a001604052803373ffffffffffffffffffffffffffffffffffffffff16815260200186815260200185815260200184815260200160001515815250600160003373ffffffffffffffffffffffffffffffffffffffff1673ffffffffffffffffffffffffffffffffffffffff16815260200190815260200160002060008201518160000160006101000a81548173ffffffffffffffffffffffffffffffffffffffff021916908373ffffffffffffffffffffffffffffffffffffffff1602179055506020820151816001019080519060200190610e61929190611e3a565b506040820151816002019080519060200190610e7e929190611e3a565b506060820151816003019080519060200190610e9b929190611e3a565b5060808201518160040160006101000a81548160ff02191690831515021790555090505081600560003373ffffffffffffffffffffffffffffffffffffffff1673ffffffffffffffffffffffffffffffffffffffff1681526020019081526020016000209080519060200190610f12929190611ec0565b5060005b8251811015610ff1576006838281518110610f5a577f4e487b7100000000000000000000000000000000000000000000000000000000600052603260045260246000fd5b6020026020010151604051610f6f9190612add565b9081526020016040518091039020339080600181540180825580915050600190039060005260206000200160009091909190916101000a81548173ffffffffffffffffffffffffffffffffffffffff021916908373ffffffffffffffffffffffffffffffffffffffff1602179055508080610fe99061301a565b915050610f16565b506004339080600181540180825580915050600190039060005260206000200160009091909190916101000a81548173ffffffffffffffffffffffffffffffffffffffff021916908373ffffffffffffffffffffffffffffffffffffffff1602179055503373ffffffffffffffffffffffffffffffffffffffff167f14c55a1cd08c66f05d77fb1e8fe116074821e543117a8acf47e54bf35acb85ca86868686426040516110a3959493929190612b85565b60405180910390a260019050949350505050565b60068280516020810182018051848252602083016020850120818352809550505050505081815481106110e957600080fd5b906000526020600020016000915091509054906101000a900473ffffffffffffffffffffffffffffffffffffffff1681565b6000806000905060005b600560003373ffffffffffffffffffffffffffffffffffffffff1673ffffffffffffffffffffffffffffffffffffffff1681526020019081526020016000208054905081101561125b57836040516020016111809190612add565b60405160208183030381529060405280519060200120600560003373ffffffffffffffffffffffffffffffffffffffff1673ffffffffffffffffffffffffffffffffffffffff168152602001908152602001600020828154811061120d577f4e487b7100000000000000000000000000000000000000000000000000000000600052603260045260246000fd5b906000526020600020016040516020016112279190612af4565b60405160208183030381529060405280519060200120141561124857600191505b80806112539061301a565b915050611125565b50801561129d576040517f08c379a000000000000000000000000000000000000000000000000000000000815260040161129490612c7e565b60405180910390fd5b600560003373ffffffffffffffffffffffffffffffffffffffff1673ffffffffffffffffffffffffffffffffffffffff16815260200190815260200160002083908060018154018082558091505060019003906000526020600020016000909190919091509080519060200190611315929190611e3a565b506006836040516113269190612add565b9081526020016040518091039020339080600181540180825580915050600190039060005260206000200160009091909190916101000a81548173ffffffffffffffffffffffffffffffffffffffff021916908373ffffffffffffffffffffffffffffffffffffffff1602179055503373ffffffffffffffffffffffffffffffffffffffff167f8202a0ca6355a2e1b7219406465ab8c6923147285738b6fcd5697c65b6ac974984426040516113dd929190612c4e565b60405180910390a26001915050919050565b60008273ffffffffffffffffffffffffffffffffffffffff163373ffffffffffffffffffffffffffffffffffffffff161415611460576040517f08c379a000000000000000000000000000000000000000000000000000000000815260040161145790612cbe565b60405180910390fd5b600073ffffffffffffffffffffffffffffffffffffffff168373ffffffffffffffffffffffffffffffffffffffff1614156114d0576040517f08c379a00000000000000000000000000000000000000000000000000000000081526004016114c790612d7e565b60405180910390fd5b81600360003373ffffffffffffffffffffffffffffffffffffffff1673ffffffffffffffffffffffffffffffffffffffff16815260200190815260200160002060008573ffffffffffffffffffffffffffffffffffffffff1673ffffffffffffffffffffffffffffffffffffffff16815260200190815260200160002060006101000a81548160ff0219169083151502179055506001905092915050565b606060048054806020026020016040519081016040528092919081815260200182805480156115f257602002820191906000526020600020905b8160009054906101000a900473ffffffffffffffffffffffffffffffffffffffff1673ffffffffffffffffffffffffffffffffffffffff16815260200190600101908083116115a8575b5050505050905090565b606060068260405161160e9190612add565b908152602001604051809103902080548060200260200160405190810160405280929190818152602001828054801561169c57602002820191906000526020600020905b8160009054906101000a900473ffffffffffffffffffffffffffffffffffffffff1673ffffffffffffffffffffffffffffffffffffffff1681526020019060010190808311611652575b50505050509050919050565b6000600160008373ffffffffffffffffffffffffffffffffffffffff1673ffffffffffffffffffffffffffffffffffffffff16815260200190815260200160002060040160009054906101000a900460ff169050919050565b611709611f20565b81600160003373ffffffffffffffffffffffffffffffffffffffff1673ffffffffffffffffffffffffffffffffffffffff16815260200190815260200160002060000160009054906101000a900473ffffffffffffffffffffffffffffffffffffffff1673ffffffffffffffffffffffffffffffffffffffff168173ffffffffffffffffffffffffffffffffffffffff1614806118345750600073ffffffffffffffffffffffffffffffffffffffff16600160003373ffffffffffffffffffffffffffffffffffffffff1673ffffffffffffffffffffffffffffffffffffffff16815260200190815260200160002060000160009054906101000a900473ffffffffffffffffffffffffffffffffffffffff1673ffffffffffffffffffffffffffffffffffffffff16145b611873576040517f08c379a000000000000000000000000000000000000000000000000000000000815260040161186a90612cfe565b60405180910390fd5b600160008473ffffffffffffffffffffffffffffffffffffffff1673ffffffffffffffffffffffffffffffffffffffff1681526020019081526020016000206040518060a00160405290816000820160009054906101000a900473ffffffffffffffffffffffffffffffffffffffff1673ffffffffffffffffffffffffffffffffffffffff1673ffffffffffffffffffffffffffffffffffffffff16815260200160018201805461192390612fe8565b80601f016020809104026020016040519081016040528092919081815260200182805461194f90612fe8565b801561199c5780601f106119715761010080835404028352916020019161199c565b820191906000526020600020905b81548152906001019060200180831161197f57829003601f168201915b505050505081526020016002820180546119b590612fe8565b80601f01602080910402602001604051908101604052809291908181526020018280546119e190612fe8565b8015611a2e5780601f10611a0357610100808354040283529160200191611a2e565b820191906000526020600020905b815481529060010190602001808311611a1157829003601f168201915b50505050508152602001600382018054611a4790612fe8565b80601f0160208091040260200160405190810160405280929190818152602001828054611a7390612fe8565b8015611ac05780601f10611a9557610100808354040283529160200191611ac0565b820191906000526020600020905b815481529060010190602001808311611aa357829003601f168201915b505050505081526020016004820160009054906101000a900460ff161515151581525050915050919050565b611af4611f20565b606082600160003373ffffffffffffffffffffffffffffffffffffffff1673ffffffffffffffffffffffffffffffffffffffff16815260200190815260200160002060000160009054906101000a900473ffffffffffffffffffffffffffffffffffffffff1673ffffffffffffffffffffffffffffffffffffffff168173ffffffffffffffffffffffffffffffffffffffff161480611c215750600073ffffffffffffffffffffffffffffffffffffffff16600160003373ffffffffffffffffffffffffffffffffffffffff1673ffffffffffffffffffffffffffffffffffffffff16815260200190815260200160002060000160009054906101000a900473ffffffffffffffffffffffffffffffffffffffff1673ffffffffffffffffffffffffffffffffffffffff16145b611c60576040517f08c379a0000000000000000000000000000000000000000000000000000000008152600401611c5790612cfe565b60405180910390fd5b611c6984611701565b9250600560008573ffffffffffffffffffffffffffffffffffffffff1673ffffffffffffffffffffffffffffffffffffffff168152602001908152602001600020805480602002602001604051908101604052809291908181526020016000905b82821015611d76578382906000526020600020018054611ce990612fe8565b80601f0160208091040260200160405190810160405280929190818152602001828054611d1590612fe8565b8015611d625780601f10611d3757610100808354040283529160200191611d62565b820191906000526020600020905b815481529060010190602001808311611d4557829003601f168201915b505050505081526020019060010190611cca565b50505050915050915091565b6000600360008473ffffffffffffffffffffffffffffffffffffffff1673ffffffffffffffffffffffffffffffffffffffff16815260200190815260200160002060008373ffffffffffffffffffffffffffffffffffffffff1673ffffffffffffffffffffffffffffffffffffffff16815260200190815260200160002060009054906101000a900460ff16905092915050565b60008054906101000a900473ffffffffffffffffffffffffffffffffffffffff1681565b828054611e4690612fe8565b90600052602060002090601f016020900481019282611e685760008555611eaf565b82601f10611e8157805160ff1916838001178555611eaf565b82800160010185558215611eaf579182015b82811115611eae578251825591602001919060010190611e93565b5b509050611ebc9190611f67565b5090565b828054828255906000526020600020908101928215611f0f579160200282015b82811115611f0e578251829080519060200190611efe929190611e3a565b5091602001919060010190611ee0565b5b509050611f1c9190611f84565b5090565b6040518060a00160405280600073ffffffffffffffffffffffffffffffffffffffff1681526020016060815260200160608152602001606081526020016000151581525090565b5b80821115611f80576000816000905550600101611f68565b5090565b5b80821115611fa45760008181611f9b9190611fa8565b50600101611f85565b5090565b508054611fb490612fe8565b6000825580601f10611fc65750611fe5565b601f016020900490600052602060002090810190611fe49190611f67565b5b50565b6000611ffb611ff684612e43565b612e12565b9050808382526020820190508260005b8581101561203b578135850161202188826120d7565b84526020840193506020830192505060018101905061200b565b5050509392505050565b600061205861205384612e6f565b612e12565b90508281526020810184848401111561207057600080fd5b61207b848285612fa6565b509392505050565b60008135905061209281613101565b92915050565b600082601f8301126120a957600080fd5b81356120b9848260208601611fe8565b91505092915050565b6000813590506120d181613118565b92915050565b600082601f8301126120e857600080fd5b81356120f8848260208601612045565b91505092915050565b6000813590506121108161312f565b92915050565b60006020828403121561212857600080fd5b600061213684828501612083565b91505092915050565b6000806040838503121561215257600080fd5b600061216085828601612083565b925050602061217185828601612083565b9150509250929050565b60008060006060848603121561219057600080fd5b600061219e86828701612083565b93505060206121af86828701612083565b92505060406121c086828701612101565b9150509250925092565b600080604083850312156121dd57600080fd5b60006121eb85828601612083565b92505060206121fc858286016120c2565b9150509250929050565b6000806040838503121561221957600080fd5b600061222785828601612083565b925050602061223885828601612101565b9150509250929050565b60006020828403121561225457600080fd5b600082013567ffffffffffffffff81111561226e57600080fd5b61227a848285016120d7565b91505092915050565b60008060006060848603121561229857600080fd5b600084013567ffffffffffffffff8111156122b257600080fd5b6122be868287016120d7565b935050602084013567ffffffffffffffff8111156122db57600080fd5b6122e7868287016120d7565b925050604084013567ffffffffffffffff81111561230457600080fd5b612310868287016120d7565b9150509250925092565b6000806000806080858703121561233057600080fd5b600085013567ffffffffffffffff81111561234a57600080fd5b612356878288016120d7565b945050602085013567ffffffffffffffff81111561237357600080fd5b61237f878288016120d7565b935050604085013567ffffffffffffffff81111561239c57600080fd5b6123a8878288016120d7565b925050606085013567ffffffffffffffff8111156123c557600080fd5b6123d187828801612098565b91505092959194509250565b600080604083850312156123f057600080fd5b600083013567ffffffffffffffff81111561240a57600080fd5b612416858286016120d7565b925050602061242785828601612101565b9150509250929050565b600061243d838361245d565b60208301905092915050565b6000612455838361256c565b905092915050565b61246681612f5e565b82525050565b61247581612f5e565b82525050565b600061248682612ed4565b6124908185612f0f565b935061249b83612e9f565b8060005b838110156124cc5781516124b38882612431565b97506124be83612ef5565b92505060018101905061249f565b5085935050505092915050565b60006124e482612edf565b6124ee8185612f20565b93508360208202850161250085612eaf565b8060005b8581101561253c578484038952815161251d8582612449565b945061252883612f02565b925060208a01995050600181019050612504565b50829750879550505050505092915050565b61255781612f70565b82525050565b61256681612f70565b82525050565b600061257782612eea565b6125818185612f31565b9350612591818560208601612fb5565b61259a816130f0565b840191505092915050565b60006125b082612eea565b6125ba8185612f42565b93506125ca818560208601612fb5565b6125d3816130f0565b840191505092915050565b60006125e982612eea565b6125f38185612f53565b9350612603818560208601612fb5565b80840191505092915050565b6000815461261c81612fe8565b6126268186612f53565b94506001821660008114612641576001811461265257612685565b60ff19831686528186019350612685565b61265b85612ebf565b60005b8381101561267d5781548189015260018201915060208101905061265e565b838801955050505b50505092915050565b600061269b603083612f42565b91507f4661726d65723a3a61646452617750726f647563743a205261772070726f647560008301527f637420616c7265616479206164646564000000000000000000000000000000006020830152604082019050919050565b6000612701603183612f42565b91507f4661726d65723a3a72656769737465724661726d65723a204661726d6572206160008301527f6c726561647920726567697374657265640000000000000000000000000000006020830152604082019050919050565b6000612767603c83612f42565b91507f5374616b65686f6c6465723a3a736574417070726f76616c466f72416c6c3a2060008301527f43616e6e6f742073657420617070726f76616c20666f722073656c66000000006020830152604082019050919050565b60006127cd603a83612f42565b91507f5374616b65686f6c6465723a3a7472616e7366657246726f6d3a2043616e6e6f60008301527f74207472616e7366657220746f206e756c6c20616464726573730000000000006020830152604082019050919050565b6000612833602983612f42565b91507f4f6e6c79207374616b65686f6c6465722063616e20616363657373207468697360008301527f2066756e6374696f6e00000000000000000000000000000000000000000000006020830152604082019050919050565b6000612899603283612f42565b91507f5374616b65686f6c6465723a3a7472616e7366657246726f6d3a2043616e6e6f60008301527f74207472616e7366657220746f2073656c6600000000000000000000000000006020830152604082019050919050565b60006128ff603583612f42565b91507f5374616b65686f6c6465723a3a72656769737465723a205374616b65686f6c6460008301527f657220616c7265616479207265676973746572656400000000000000000000006020830152604082019050919050565b6000612965602f83612f42565b91507f4f6e6c79206f776e6572206f7220617070726f7665642063616e20616363657360008301527f7320746869732066756e6374696f6e00000000000000000000000000000000006020830152604082019050919050565b60006129cb604483612f42565b91507f5374616b65686f6c6465723a3a736574417070726f76616c466f72416c6c3a2060008301527f43616e6e6f742073657420617070726f76616c20666f72206e756c6c2061646460208301527f72657373000000000000000000000000000000000000000000000000000000006040830152606082019050919050565b600060a083016000830151612a62600086018261245d565b5060208301518482036020860152612a7a828261256c565b91505060408301518482036040860152612a94828261256c565b91505060608301518482036060860152612aae828261256c565b9150506080830151612ac3608086018261254e565b508091505092915050565b612ad781612f9c565b82525050565b6000612ae982846125de565b915081905092915050565b6000612b00828461260f565b915081905092915050565b6000602082019050612b20600083018461246c565b92915050565b60006020820190508181036000830152612b40818461247b565b905092915050565b6000602082019050612b5d600083018461255d565b92915050565b60006020820190508181036000830152612b7d81846125a5565b905092915050565b600060a0820190508181036000830152612b9f81886125a5565b90508181036020830152612bb381876125a5565b90508181036040830152612bc781866125a5565b90508181036060830152612bdb81856124d9565b9050612bea6080830184612ace565b9695505050505050565b60006080820190508181036000830152612c0e81876125a5565b90508181036020830152612c2281866125a5565b90508181036040830152612c3681856125a5565b9050612c456060830184612ace565b95945050505050565b60006040820190508181036000830152612c6881856125a5565b9050612c776020830184612ace565b9392505050565b60006020820190508181036000830152612c978161268e565b9050919050565b60006020820190508181036000830152612cb7816126f4565b9050919050565b60006020820190508181036000830152612cd78161275a565b9050919050565b60006020820190508181036000830152612cf7816127c0565b9050919050565b60006020820190508181036000830152612d1781612826565b9050919050565b60006020820190508181036000830152612d378161288c565b9050919050565b60006020820190508181036000830152612d57816128f2565b9050919050565b60006020820190508181036000830152612d7781612958565b9050919050565b60006020820190508181036000830152612d97816129be565b9050919050565b60006020820190508181036000830152612db88184612a4a565b905092915050565b60006040820190508181036000830152612dda8185612a4a565b90508181036020830152612dee81846124d9565b90509392505050565b6000602082019050612e0c6000830184612ace565b92915050565b6000604051905081810181811067ffffffffffffffff82111715612e3957612e386130c1565b5b8060405250919050565b600067ffffffffffffffff821115612e5e57612e5d6130c1565b5b602082029050602081019050919050565b600067ffffffffffffffff821115612e8a57612e896130c1565b5b601f19601f8301169050602081019050919050565b6000819050602082019050919050565b6000819050602082019050919050565b60008190508160005260206000209050919050565b600081519050919050565b600081519050919050565b600081519050919050565b6000602082019050919050565b6000602082019050919050565b600082825260208201905092915050565b600082825260208201905092915050565b600082825260208201905092915050565b600082825260208201905092915050565b600081905092915050565b6000612f6982612f7c565b9050919050565b60008115159050919050565b600073ffffffffffffffffffffffffffffffffffffffff82169050919050565b6000819050919050565b82818337600083830152505050565b60005b83811015612fd3578082015181840152602081019050612fb8565b83811115612fe2576000848401525b50505050565b6000600282049050600182168061300057607f821691505b6020821081141561301457613013613092565b5b50919050565b600061302582612f9c565b91507fffffffffffffffffffffffffffffffffffffffffffffffffffffffffffffffff82141561305857613057613063565b5b600182019050919050565b7f4e487b7100000000000000000000000000000000000000000000000000000000600052601160045260246000fd5b7f4e487b7100000000000000000000000000000000000000000000000000000000600052602260045260246000fd5b7f4e487b7100000000000000000000000000000000000000000000000000000000600052604160045260246000fd5b6000601f19601f8301169050919050565b61310a81612f5e565b811461311557600080fd5b50565b61312181612f70565b811461312c57600080fd5b50565b61313881612f9c565b811461314357600080fd5b5056fea2646970667358221220a30c35048ad83754ceb3a6a109001c8df570f042979899dfa3e465432ec7c09b64736f6c63430008000033",
  "immutableReferences": {},
  "source": "// SPDX-License-Identifier: MIT\npragma solidity ^0.8.0;\nimport \"./Stakeholder.sol\";\n\ncontract Farmer is Stakeholder {\n    mapping(address => string[]) public _farmerRawProducts;\n    mapping(string => address[]) public _rawProductFarmers;\n    event AddRawProduct(\n        string rawProduct,\n        address indexed farmer,\n        uint addProductTime\n    );\n\n    event RegisterFarmer(\n        string name,\n        string location,\n        string role,\n        string[] rawProduct,\n        address indexed Farmer,\n        uint registerTime\n    );\n\n    constructor() Stakeholder() {}\n\n    function registerFarmer(\n        string memory _name,\n        string memory _location,\n        string memory _role,\n        string[] memory _rawProducts\n    ) public returns (bool) {\n        require(\n            _stakeholders[msg.sender].id == address(0),\n            \"Farmer::registerFarmer: Farmer already registered\"\n        );\n        _stakeholders[msg.sender] = stakeholder(\n            msg.sender,\n            _name,\n            _location,\n            _role,\n            false\n        );\n        _farmerRawProducts[msg.sender] = _rawProducts;\n        for (uint i = 0; i < _rawProducts.length; i++) {\n            _rawProductFarmers[_rawProducts[i]].push(msg.sender);\n        }\n        _stakeholderAddresses.push(msg.sender);\n        emit RegisterFarmer(\n            _name,\n            _location,\n            _role,\n            _rawProducts,\n            msg.sender,\n            block.timestamp\n        );\n        return true;\n    }\n\n    function addRawProduct(string memory _rawProduct) public returns (bool) {\n        bool productAlreadyAdded = false;\n        for (uint i = 0; i < _farmerRawProducts[msg.sender].length; i++) {\n            if (\n                keccak256(\n                    abi.encodePacked((_farmerRawProducts[msg.sender][i]))\n                ) == keccak256(abi.encodePacked((_rawProduct)))\n            ) {\n                productAlreadyAdded = true;\n            }\n        }\n        require(\n            !productAlreadyAdded,\n            \"Farmer::addRawProduct: Raw product already added\"\n        );\n        _farmerRawProducts[msg.sender].push(_rawProduct);\n        _rawProductFarmers[_rawProduct].push(msg.sender);\n        emit AddRawProduct(_rawProduct, msg.sender, block.timestamp);\n        return true;\n    }\n\n    function getFarmer(\n        address _id\n    )\n        public\n        view\n        onlyStakeholder(_id)\n        returns (stakeholder memory farmer, string[] memory rawProducts)\n    {\n        farmer = super.get(_id);\n        rawProducts = _farmerRawProducts[_id];\n    }\n\n    function getRawProductFarmers(\n        string memory _rawProduct\n    ) public view returns (address[] memory) {\n        return _rawProductFarmers[_rawProduct];\n    }\n}\n",
  "sourcePath": "/home/lequocvieet/Desktop/DATN/supply-chain/src/Smart-Contract/Contracts/Farmer.sol",
  "compiler": {
    "name": "solc",
    "version": "0.8.0+commit.c7dfd78e.Emscripten.clang"
  },
  "schemaVersion": "3.4.14",
  "updatedAt": "2023-06-10T02:12:25.582Z",
  "networkType": "ethereum",
  "devdoc": {
    "kind": "dev",
    "methods": {},
    "version": 1
  },
  "userdoc": {
    "kind": "user",
    "methods": {},
    "version": 1
  }
}