{
  "contractName": "Manufacturer",
  "abi": [
    {
      "inputs": [],
      "stateMutability": "nonpayable",
      "type": "constructor"
    },
    {
      "anonymous": false,
      "inputs": [
        {
          "indexed": false,
          "internalType": "string",
          "name": "rawProductName",
          "type": "string"
        },
        {
          "components": [
            {
              "internalType": "address",
              "name": "id",
              "type": "address"
            },
            {
              "internalType": "bool",
              "name": "isVerified",
              "type": "bool"
            }
          ],
          "indexed": false,
          "internalType": "struct Manufacturer.supplier[]",
          "name": "suppliers",
          "type": "tuple[]"
        },
        {
          "indexed": true,
          "internalType": "address",
          "name": "manufaturer",
          "type": "address"
        },
        {
          "indexed": false,
          "internalType": "uint256",
          "name": "addRawProductTime",
          "type": "uint256"
        }
      ],
      "name": "AddRawProduct",
      "type": "event"
    },
    {
      "anonymous": false,
      "inputs": [
        {
          "indexed": false,
          "internalType": "uint256",
          "name": "productId",
          "type": "uint256"
        },
        {
          "indexed": false,
          "internalType": "address",
          "name": "producer",
          "type": "address"
        },
        {
          "indexed": false,
          "internalType": "uint256",
          "name": "launchTime",
          "type": "uint256"
        }
      ],
      "name": "LaunchProduct",
      "type": "event"
    },
    {
      "anonymous": false,
      "inputs": [
        {
          "indexed": false,
          "internalType": "string",
          "name": "name",
          "type": "string"
        },
        {
          "indexed": false,
          "internalType": "string",
          "name": "location",
          "type": "string"
        },
        {
          "indexed": false,
          "internalType": "string",
          "name": "role",
          "type": "string"
        },
        {
          "indexed": true,
          "internalType": "address",
          "name": "stakeHolder",
          "type": "address"
        },
        {
          "indexed": false,
          "internalType": "uint256",
          "name": "registerTime",
          "type": "uint256"
        }
      ],
      "name": "Register",
      "type": "event"
    },
    {
      "anonymous": false,
      "inputs": [
        {
          "indexed": false,
          "internalType": "address",
          "name": "manufacturer",
          "type": "address"
        },
        {
          "indexed": false,
          "internalType": "string",
          "name": "name",
          "type": "string"
        },
        {
          "indexed": false,
          "internalType": "string",
          "name": "location",
          "type": "string"
        },
        {
          "indexed": false,
          "internalType": "string",
          "name": "role",
          "type": "string"
        },
        {
          "indexed": false,
          "internalType": "uint256",
          "name": "registerTime",
          "type": "uint256"
        }
      ],
      "name": "RegisterManufacturer",
      "type": "event"
    },
    {
      "anonymous": false,
      "inputs": [
        {
          "indexed": false,
          "internalType": "address",
          "name": "id",
          "type": "address"
        },
        {
          "indexed": false,
          "internalType": "address",
          "name": "manufaturer",
          "type": "address"
        },
        {
          "indexed": false,
          "internalType": "uint256",
          "name": "updateTime",
          "type": "uint256"
        }
      ],
      "name": "UpdateEnergy",
      "type": "event"
    },
    {
      "anonymous": false,
      "inputs": [
        {
          "indexed": true,
          "internalType": "address",
          "name": "admin",
          "type": "address"
        },
        {
          "indexed": true,
          "internalType": "address",
          "name": "verifier",
          "type": "address"
        },
        {
          "indexed": false,
          "internalType": "uint256",
          "name": "verifyTime",
          "type": "uint256"
        }
      ],
      "name": "Verify",
      "type": "event"
    },
    {
      "inputs": [
        {
          "internalType": "address",
          "name": "",
          "type": "address"
        }
      ],
      "name": "_isRenewableUsed",
      "outputs": [
        {
          "internalType": "bool",
          "name": "",
          "type": "bool"
        }
      ],
      "stateMutability": "view",
      "type": "function",
      "constant": true
    },
    {
      "inputs": [
        {
          "internalType": "address",
          "name": "",
          "type": "address"
        },
        {
          "internalType": "uint256",
          "name": "",
          "type": "uint256"
        }
      ],
      "name": "_launchedProducts",
      "outputs": [
        {
          "internalType": "uint256",
          "name": "",
          "type": "uint256"
        }
      ],
      "stateMutability": "view",
      "type": "function",
      "constant": true
    },
    {
      "inputs": [
        {
          "internalType": "address",
          "name": "",
          "type": "address"
        },
        {
          "internalType": "string",
          "name": "",
          "type": "string"
        },
        {
          "internalType": "uint256",
          "name": "",
          "type": "uint256"
        }
      ],
      "name": "_rawProductSuppliers",
      "outputs": [
        {
          "internalType": "address",
          "name": "",
          "type": "address"
        }
      ],
      "stateMutability": "view",
      "type": "function",
      "constant": true
    },
    {
      "inputs": [
        {
          "internalType": "address",
          "name": "",
          "type": "address"
        },
        {
          "internalType": "string",
          "name": "",
          "type": "string"
        }
      ],
      "name": "_rawProductVerified",
      "outputs": [
        {
          "internalType": "bool",
          "name": "",
          "type": "bool"
        }
      ],
      "stateMutability": "view",
      "type": "function",
      "constant": true
    },
    {
      "inputs": [
        {
          "internalType": "address",
          "name": "",
          "type": "address"
        },
        {
          "internalType": "uint256",
          "name": "",
          "type": "uint256"
        }
      ],
      "name": "_rawProducts",
      "outputs": [
        {
          "internalType": "string",
          "name": "",
          "type": "string"
        }
      ],
      "stateMutability": "view",
      "type": "function",
      "constant": true
    },
    {
      "inputs": [],
      "name": "admin",
      "outputs": [
        {
          "internalType": "address",
          "name": "",
          "type": "address"
        }
      ],
      "stateMutability": "view",
      "type": "function",
      "constant": true
    },
    {
      "inputs": [
        {
          "internalType": "address",
          "name": "_id",
          "type": "address"
        }
      ],
      "name": "get",
      "outputs": [
        {
          "components": [
            {
              "internalType": "address",
              "name": "id",
              "type": "address"
            },
            {
              "internalType": "string",
              "name": "name",
              "type": "string"
            },
            {
              "internalType": "string",
              "name": "location",
              "type": "string"
            },
            {
              "internalType": "string",
              "name": "role",
              "type": "string"
            },
            {
              "internalType": "bool",
              "name": "isVerified",
              "type": "bool"
            }
          ],
          "internalType": "struct Stakeholder.stakeholder",
          "name": "",
          "type": "tuple"
        }
      ],
      "stateMutability": "view",
      "type": "function",
      "constant": true
    },
    {
      "inputs": [],
      "name": "getAddresses",
      "outputs": [
        {
          "internalType": "address[]",
          "name": "",
          "type": "address[]"
        }
      ],
      "stateMutability": "view",
      "type": "function",
      "constant": true
    },
    {
      "inputs": [
        {
          "internalType": "address",
          "name": "_id",
          "type": "address"
        }
      ],
      "name": "getRole",
      "outputs": [
        {
          "internalType": "string",
          "name": "",
          "type": "string"
        }
      ],
      "stateMutability": "view",
      "type": "function",
      "constant": true
    },
    {
      "inputs": [
        {
          "internalType": "address",
          "name": "_account",
          "type": "address"
        }
      ],
      "name": "isAdmin",
      "outputs": [
        {
          "internalType": "bool",
          "name": "",
          "type": "bool"
        }
      ],
      "stateMutability": "view",
      "type": "function",
      "constant": true
    },
    {
      "inputs": [
        {
          "internalType": "address",
          "name": "_owner",
          "type": "address"
        },
        {
          "internalType": "address",
          "name": "_operator",
          "type": "address"
        }
      ],
      "name": "isApprovedForAll",
      "outputs": [
        {
          "internalType": "bool",
          "name": "",
          "type": "bool"
        }
      ],
      "stateMutability": "view",
      "type": "function",
      "constant": true
    },
    {
      "inputs": [
        {
          "internalType": "address",
          "name": "_id",
          "type": "address"
        }
      ],
      "name": "isVerified",
      "outputs": [
        {
          "internalType": "bool",
          "name": "",
          "type": "bool"
        }
      ],
      "stateMutability": "view",
      "type": "function",
      "constant": true
    },
    {
      "inputs": [
        {
          "internalType": "address",
          "name": "_operator",
          "type": "address"
        },
        {
          "internalType": "bool",
          "name": "_approved",
          "type": "bool"
        }
      ],
      "name": "setApprovalForAll",
      "outputs": [
        {
          "internalType": "bool",
          "name": "",
          "type": "bool"
        }
      ],
      "stateMutability": "nonpayable",
      "type": "function"
    },
    {
      "inputs": [
        {
          "internalType": "address",
          "name": "_from",
          "type": "address"
        },
        {
          "internalType": "address",
          "name": "_to",
          "type": "address"
        },
        {
          "internalType": "uint256",
          "name": "_productId",
          "type": "uint256"
        }
      ],
      "name": "transferFrom",
      "outputs": [
        {
          "internalType": "bool",
          "name": "",
          "type": "bool"
        }
      ],
      "stateMutability": "nonpayable",
      "type": "function"
    },
    {
      "inputs": [
        {
          "internalType": "address",
          "name": "_id",
          "type": "address"
        }
      ],
      "name": "verify",
      "outputs": [
        {
          "internalType": "bool",
          "name": "",
          "type": "bool"
        }
      ],
      "stateMutability": "nonpayable",
      "type": "function"
    },
    {
      "inputs": [
        {
          "internalType": "string",
          "name": "_name",
          "type": "string"
        },
        {
          "internalType": "string",
          "name": "_location",
          "type": "string"
        },
        {
          "internalType": "string",
          "name": "_role",
          "type": "string"
        }
      ],
      "name": "register",
      "outputs": [
        {
          "internalType": "bool",
          "name": "",
          "type": "bool"
        }
      ],
      "stateMutability": "nonpayable",
      "type": "function"
    },
    {
      "inputs": [
        {
          "internalType": "string",
          "name": "_name",
          "type": "string"
        },
        {
          "components": [
            {
              "internalType": "address",
              "name": "id",
              "type": "address"
            },
            {
              "internalType": "bool",
              "name": "isVerified",
              "type": "bool"
            }
          ],
          "internalType": "struct Manufacturer.supplier[]",
          "name": "_suppliers",
          "type": "tuple[]"
        }
      ],
      "name": "addRawProduct",
      "outputs": [
        {
          "internalType": "bool",
          "name": "",
          "type": "bool"
        }
      ],
      "stateMutability": "nonpayable",
      "type": "function"
    },
    {
      "inputs": [
        {
          "internalType": "address",
          "name": "_id",
          "type": "address"
        }
      ],
      "name": "getManufacturerRawProductDetails",
      "outputs": [
        {
          "components": [
            {
              "internalType": "string",
              "name": "name",
              "type": "string"
            },
            {
              "internalType": "address[]",
              "name": "boughtFromIds",
              "type": "address[]"
            },
            {
              "internalType": "bool",
              "name": "isVerified",
              "type": "bool"
            }
          ],
          "internalType": "struct Manufacturer.rawProduct[]",
          "name": "",
          "type": "tuple[]"
        }
      ],
      "stateMutability": "view",
      "type": "function",
      "constant": true
    },
    {
      "inputs": [
        {
          "internalType": "address",
          "name": "id",
          "type": "address"
        }
      ],
      "name": "getManufacturer",
      "outputs": [
        {
          "components": [
            {
              "internalType": "address",
              "name": "id",
              "type": "address"
            },
            {
              "internalType": "string",
              "name": "name",
              "type": "string"
            },
            {
              "internalType": "string",
              "name": "location",
              "type": "string"
            },
            {
              "internalType": "string",
              "name": "role",
              "type": "string"
            },
            {
              "internalType": "bool",
              "name": "isVerified",
              "type": "bool"
            }
          ],
          "internalType": "struct Stakeholder.stakeholder",
          "name": "manufacturer",
          "type": "tuple"
        },
        {
          "internalType": "bool",
          "name": "isRenewableUsed",
          "type": "bool"
        },
        {
          "components": [
            {
              "internalType": "string",
              "name": "name",
              "type": "string"
            },
            {
              "internalType": "address[]",
              "name": "boughtFromIds",
              "type": "address[]"
            },
            {
              "internalType": "bool",
              "name": "isVerified",
              "type": "bool"
            }
          ],
          "internalType": "struct Manufacturer.rawProduct[]",
          "name": "rawProducts",
          "type": "tuple[]"
        },
        {
          "internalType": "uint256[]",
          "name": "launchedProductIds",
          "type": "uint256[]"
        }
      ],
      "stateMutability": "view",
      "type": "function",
      "constant": true
    },
    {
      "inputs": [
        {
          "internalType": "uint256",
          "name": "_id",
          "type": "uint256"
        }
      ],
      "name": "launchProduct",
      "outputs": [
        {
          "internalType": "bool",
          "name": "",
          "type": "bool"
        }
      ],
      "stateMutability": "nonpayable",
      "type": "function"
    },
    {
      "inputs": [
        {
          "internalType": "address",
          "name": "id",
          "type": "address"
        }
      ],
      "name": "updateEnergy",
      "outputs": [
        {
          "internalType": "bool",
          "name": "",
          "type": "bool"
        }
      ],
      "stateMutability": "nonpayable",
      "type": "function"
    }
  ],
  "bytecode": "0x608060405234801561001057600080fd5b5033806000806101000a81548173ffffffffffffffffffffffffffffffffffffffff021916908373ffffffffffffffffffffffffffffffffffffffff16021790555050613af4806100626000396000f3fe608060405234801561001057600080fd5b50600436106101375760003560e01c806363a9c3d7116100b8578063c2bc2efc1161007c578063c2bc2efc146103fd578063ca9840b21461042d578063dfcb137d1461045d578063e985e9c51461048d578063eff5cebf146104bd578063f851a440146104ed57610137565b806363a9c3d71461031f578063a22cb4651461034f578063a39fac121461037f578063ae48e5da1461039d578063b9209e33146103cd57610137565b806344276733116100ff578063442767331461022f57806344a9c5c61461025f5780634afada0a1461028f5780634cd08d03146102bf5780636330a4a8146102ef57610137565b8063191bcef61461013c57806323b872dd1461016f57806324d7806c1461019f5780632cfe63fb146101cf57806340d1a208146101ff575b600080fd5b610156600480360381019061015191906128b3565b61050b565b604051610166949392919061365b565b60405180910390f35b61018960048036038101906101849190612918565b6108f7565b60405161019691906134d7565b60405180910390f35b6101b960048036038101906101b491906128b3565b610baa565b6040516101c691906134d7565b60405180910390f35b6101e960048036038101906101e491906129f7565b610c03565b6040516101f691906133d9565b60405180910390f35b61021960048036038101906102149190612a5e565b610c74565b60405161022691906134f2565b60405180910390f35b610249600480360381019061024491906128b3565b610d2d565b60405161025691906134f2565b60405180910390f35b61027960048036038101906102749190612a9a565b610e01565b60405161028691906134d7565b60405180910390f35b6102a960048036038101906102a491906129a3565b6112da565b6040516102b691906134d7565b60405180910390f35b6102d960048036038101906102d49190612b06565b61131f565b6040516102e691906134d7565b60405180910390f35b610309600480360381019061030491906128b3565b611636565b60405161031691906134d7565b60405180910390f35b610339600480360381019061033491906128b3565b611656565b60405161034691906134d7565b60405180910390f35b61036960048036038101906103649190612967565b611779565b60405161037691906134d7565b60405180910390f35b6103876118f8565b6040516103949190613493565b60405180910390f35b6103b760048036038101906103b291906128b3565b611986565b6040516103c491906134d7565b60405180910390f35b6103e760048036038101906103e291906128b3565b611a7d565b6040516103f491906134d7565b60405180910390f35b610417600480360381019061041291906128b3565b611ad6565b6040516104249190613639565b60405180910390f35b61044760048036038101906104429190612b9d565b611ec1565b60405161045491906134d7565b60405180910390f35b61047760048036038101906104729190612a5e565b611fd6565b60405161048491906136b5565b60405180910390f35b6104a760048036038101906104a291906128dc565b612007565b6040516104b491906134d7565b60405180910390f35b6104d760048036038101906104d291906128b3565b61209b565b6040516104e491906134b5565b60405180910390f35b6104f56125f9565b60405161050291906133d9565b60405180910390f35b61051361261d565b60006060806040518060a001604052808673ffffffffffffffffffffffffffffffffffffffff168152602001600160008873ffffffffffffffffffffffffffffffffffffffff1673ffffffffffffffffffffffffffffffffffffffff168152602001908152602001600020600101805461058c90613960565b80601f01602080910402602001604051908101604052809291908181526020018280546105b890613960565b80156106055780601f106105da57610100808354040283529160200191610605565b820191906000526020600020905b8154815290600101906020018083116105e857829003601f168201915b50505050508152602001600160008873ffffffffffffffffffffffffffffffffffffffff1673ffffffffffffffffffffffffffffffffffffffff168152602001908152602001600020600201805461065c90613960565b80601f016020809104026020016040519081016040528092919081815260200182805461068890613960565b80156106d55780601f106106aa576101008083540402835291602001916106d5565b820191906000526020600020905b8154815290600101906020018083116106b857829003601f168201915b50505050508152602001600160008873ffffffffffffffffffffffffffffffffffffffff1673ffffffffffffffffffffffffffffffffffffffff168152602001908152602001600020600301805461072c90613960565b80601f016020809104026020016040519081016040528092919081815260200182805461075890613960565b80156107a55780601f1061077a576101008083540402835291602001916107a5565b820191906000526020600020905b81548152906001019060200180831161078857829003601f168201915b50505050508152602001600160008873ffffffffffffffffffffffffffffffffffffffff1673ffffffffffffffffffffffffffffffffffffffff16815260200190815260200160002060040160009054906101000a900460ff1615158152509350600560008673ffffffffffffffffffffffffffffffffffffffff1673ffffffffffffffffffffffffffffffffffffffff16815260200190815260200160002060009054906101000a900460ff16925061085e8561209b565b9150600960008673ffffffffffffffffffffffffffffffffffffffff1673ffffffffffffffffffffffffffffffffffffffff1681526020019081526020016000208054806020026020016040519081016040528092919081815260200182805480156108e957602002820191906000526020600020905b8154815260200190600101908083116108d5575b505050505090509193509193565b600083826000600260008473ffffffffffffffffffffffffffffffffffffffff1673ffffffffffffffffffffffffffffffffffffffff168152602001908152602001600020600083815260200190815260200160002060009054906101000a900460ff16905060006109698433612007565b8061099f57508373ffffffffffffffffffffffffffffffffffffffff163373ffffffffffffffffffffffffffffffffffffffff16145b90508180156109ab5750805b6109ea576040517f08c379a00000000000000000000000000000000000000000000000000000000081526004016109e1906135f9565b60405180910390fd5b8673ffffffffffffffffffffffffffffffffffffffff168873ffffffffffffffffffffffffffffffffffffffff161415610a59576040517f08c379a0000000000000000000000000000000000000000000000000000000008152600401610a50906135d9565b60405180910390fd5b600073ffffffffffffffffffffffffffffffffffffffff168773ffffffffffffffffffffffffffffffffffffffff161415610ac9576040517f08c379a0000000000000000000000000000000000000000000000000000000008152600401610ac090613579565b60405180910390fd5b6000600260008a73ffffffffffffffffffffffffffffffffffffffff1673ffffffffffffffffffffffffffffffffffffffff168152602001908152602001600020600088815260200190815260200160002060006101000a81548160ff0219169083151502179055506001600260008973ffffffffffffffffffffffffffffffffffffffff1673ffffffffffffffffffffffffffffffffffffffff168152602001908152602001600020600088815260200190815260200160002060006101000a81548160ff02191690831515021790555060019450505050509392505050565b60008060009054906101000a900473ffffffffffffffffffffffffffffffffffffffff1673ffffffffffffffffffffffffffffffffffffffff168273ffffffffffffffffffffffffffffffffffffffff16149050919050565b6007602052826000526040600020828051602081018201805184825260208301602085012081835280955050505050508181548110610c4157600080fd5b90600052602060002001600092509250509054906101000a900473ffffffffffffffffffffffffffffffffffffffff1681565b60066020528160005260406000208181548110610c9057600080fd5b90600052602060002001600091509150508054610cac90613960565b80601f0160208091040260200160405190810160405280929190818152602001828054610cd890613960565b8015610d255780601f10610cfa57610100808354040283529160200191610d25565b820191906000526020600020905b815481529060010190602001808311610d0857829003601f168201915b505050505081565b6060600160008373ffffffffffffffffffffffffffffffffffffffff1673ffffffffffffffffffffffffffffffffffffffff1681526020019081526020016000206003018054610d7c90613960565b80601f0160208091040260200160405190810160405280929190818152602001828054610da890613960565b8015610df55780601f10610dca57610100808354040283529160200191610df5565b820191906000526020600020905b815481529060010190602001808311610dd857829003601f168201915b50505050509050919050565b6000806000905060005b600660003373ffffffffffffffffffffffffffffffffffffffff1673ffffffffffffffffffffffffffffffffffffffff16815260200190815260200160002080549050811015610f415784604051602001610e6691906133ab565b60405160208183030381529060405280519060200120600660003373ffffffffffffffffffffffffffffffffffffffff1673ffffffffffffffffffffffffffffffffffffffff1681526020019081526020016000208281548110610ef3577f4e487b7100000000000000000000000000000000000000000000000000000000600052603260045260246000fd5b90600052602060002001604051602001610f0d91906133c2565b604051602081830303815290604052805190602001201415610f2e57600191505b8080610f3990613992565b915050610e0b565b5080610fc157600660003373ffffffffffffffffffffffffffffffffffffffff1673ffffffffffffffffffffffffffffffffffffffff16815260200190815260200160002084908060018154018082558091505060019003906000526020600020016000909190919091509080519060200190610fbf929190612664565b505b6001600860003373ffffffffffffffffffffffffffffffffffffffff1673ffffffffffffffffffffffffffffffffffffffff1681526020019081526020016000208560405161101091906133ab565b908152602001604051809103902060006101000a81548160ff02191690831515021790555060005b835181101561127c57600760003373ffffffffffffffffffffffffffffffffffffffff1673ffffffffffffffffffffffffffffffffffffffff1681526020019081526020016000208560405161108e91906133ab565b90815260200160405180910390208482815181106110d5577f4e487b7100000000000000000000000000000000000000000000000000000000600052603260045260246000fd5b6020026020010151600001519080600181540180825580915050600190039060005260206000200160009091909190916101000a81548173ffffffffffffffffffffffffffffffffffffffff021916908373ffffffffffffffffffffffffffffffffffffffff160217905550600860003373ffffffffffffffffffffffffffffffffffffffff1673ffffffffffffffffffffffffffffffffffffffff1681526020019081526020016000208560405161118e91906133ab565b908152602001604051809103902060009054906101000a900460ff1680156111f757508381815181106111ea577f4e487b7100000000000000000000000000000000000000000000000000000000600052603260045260246000fd5b6020026020010151602001515b600860003373ffffffffffffffffffffffffffffffffffffffff1673ffffffffffffffffffffffffffffffffffffffff1681526020019081526020016000208660405161124491906133ab565b908152602001604051809103902060006101000a81548160ff021916908315150217905550808061127490613992565b915050611038565b503373ffffffffffffffffffffffffffffffffffffffff167ff4bfdc4f872c0058ef7a23f16f4be49d24575c98c3b9ddc1b452704f6561dd5d8585426040516112c793929190613514565b60405180910390a2600191505092915050565b6008602052816000526040600020818051602081018201805184825260208301602085012081835280955050505050506000915091509054906101000a900460ff1681565b60008073ffffffffffffffffffffffffffffffffffffffff16600160003373ffffffffffffffffffffffffffffffffffffffff1673ffffffffffffffffffffffffffffffffffffffff16815260200190815260200160002060000160009054906101000a900473ffffffffffffffffffffffffffffffffffffffff1673ffffffffffffffffffffffffffffffffffffffff16146113f1576040517f08c379a00000000000000000000000000000000000000000000000000000000081526004016113e890613599565b60405180910390fd5b6040518060a001604052803373ffffffffffffffffffffffffffffffffffffffff16815260200185815260200184815260200183815260200160001515815250600160003373ffffffffffffffffffffffffffffffffffffffff1673ffffffffffffffffffffffffffffffffffffffff16815260200190815260200160002060008201518160000160006101000a81548173ffffffffffffffffffffffffffffffffffffffff021916908373ffffffffffffffffffffffffffffffffffffffff16021790555060208201518160010190805190602001906114d3929190612664565b5060408201518160020190805190602001906114f0929190612664565b50606082015181600301908051906020019061150d929190612664565b5060808201518160040160006101000a81548160ff0219169083151502179055509050506000600560003373ffffffffffffffffffffffffffffffffffffffff1673ffffffffffffffffffffffffffffffffffffffff16815260200190815260200160002060006101000a81548160ff0219169083151502179055506004339080600181540180825580915050600190039060005260206000200160009091909190916101000a81548173ffffffffffffffffffffffffffffffffffffffff021916908373ffffffffffffffffffffffffffffffffffffffff1602179055507f71d7ae78c349aede6c85a39d8d00e4b782e4d506bf590a22c1be9fd5f83e7ea6338585854260405161162395949392919061342b565b60405180910390a1600190509392505050565b60056020528060005260406000206000915054906101000a900460ff1681565b60008060009054906101000a900473ffffffffffffffffffffffffffffffffffffffff1673ffffffffffffffffffffffffffffffffffffffff163373ffffffffffffffffffffffffffffffffffffffff16146116b157600080fd5b60018060008473ffffffffffffffffffffffffffffffffffffffff1673ffffffffffffffffffffffffffffffffffffffff16815260200190815260200160002060040160006101000a81548160ff0219169083151502179055508173ffffffffffffffffffffffffffffffffffffffff163373ffffffffffffffffffffffffffffffffffffffff167f4aa983eb91154bcac20e42c69efe6948891ea1fcf772b3ff6507f41309a0f33e4260405161176891906136b5565b60405180910390a360019050919050565b60008273ffffffffffffffffffffffffffffffffffffffff163373ffffffffffffffffffffffffffffffffffffffff1614156117ea576040517f08c379a00000000000000000000000000000000000000000000000000000000081526004016117e190613559565b60405180910390fd5b600073ffffffffffffffffffffffffffffffffffffffff168373ffffffffffffffffffffffffffffffffffffffff16141561185a576040517f08c379a000000000000000000000000000000000000000000000000000000000815260040161185190613619565b60405180910390fd5b81600360003373ffffffffffffffffffffffffffffffffffffffff1673ffffffffffffffffffffffffffffffffffffffff16815260200190815260200160002060008573ffffffffffffffffffffffffffffffffffffffff1673ffffffffffffffffffffffffffffffffffffffff16815260200190815260200160002060006101000a81548160ff0219169083151502179055506001905092915050565b6060600480548060200260200160405190810160405280929190818152602001828054801561197c57602002820191906000526020600020905b8160009054906101000a900473ffffffffffffffffffffffffffffffffffffffff1673ffffffffffffffffffffffffffffffffffffffff1681526020019060010190808311611932575b5050505050905090565b60008060009054906101000a900473ffffffffffffffffffffffffffffffffffffffff1673ffffffffffffffffffffffffffffffffffffffff163373ffffffffffffffffffffffffffffffffffffffff16146119e157600080fd5b6001600560008473ffffffffffffffffffffffffffffffffffffffff1673ffffffffffffffffffffffffffffffffffffffff16815260200190815260200160002060006101000a81548160ff0219169083151502179055507f0d1b449ad7e1a2fde220b431eeff60c85362f6f08a4c50ba708e6f1ad31c23b2823342604051611a6c939291906133f4565b60405180910390a160019050919050565b6000600160008373ffffffffffffffffffffffffffffffffffffffff1673ffffffffffffffffffffffffffffffffffffffff16815260200190815260200160002060040160009054906101000a900460ff169050919050565b611ade61261d565b81600160003373ffffffffffffffffffffffffffffffffffffffff1673ffffffffffffffffffffffffffffffffffffffff16815260200190815260200160002060000160009054906101000a900473ffffffffffffffffffffffffffffffffffffffff1673ffffffffffffffffffffffffffffffffffffffff168173ffffffffffffffffffffffffffffffffffffffff161480611c095750600073ffffffffffffffffffffffffffffffffffffffff16600160003373ffffffffffffffffffffffffffffffffffffffff1673ffffffffffffffffffffffffffffffffffffffff16815260200190815260200160002060000160009054906101000a900473ffffffffffffffffffffffffffffffffffffffff1673ffffffffffffffffffffffffffffffffffffffff16145b611c48576040517f08c379a0000000000000000000000000000000000000000000000000000000008152600401611c3f906135b9565b60405180910390fd5b600160008473ffffffffffffffffffffffffffffffffffffffff1673ffffffffffffffffffffffffffffffffffffffff1681526020019081526020016000206040518060a00160405290816000820160009054906101000a900473ffffffffffffffffffffffffffffffffffffffff1673ffffffffffffffffffffffffffffffffffffffff1673ffffffffffffffffffffffffffffffffffffffff168152602001600182018054611cf890613960565b80601f0160208091040260200160405190810160405280929190818152602001828054611d2490613960565b8015611d715780601f10611d4657610100808354040283529160200191611d71565b820191906000526020600020905b815481529060010190602001808311611d5457829003601f168201915b50505050508152602001600282018054611d8a90613960565b80601f0160208091040260200160405190810160405280929190818152602001828054611db690613960565b8015611e035780601f10611dd857610100808354040283529160200191611e03565b820191906000526020600020905b815481529060010190602001808311611de657829003601f168201915b50505050508152602001600382018054611e1c90613960565b80601f0160208091040260200160405190810160405280929190818152602001828054611e4890613960565b8015611e955780601f10611e6a57610100808354040283529160200191611e95565b820191906000526020600020905b815481529060010190602001808311611e7857829003601f168201915b505050505081526020016004820160009054906101000a900460ff161515151581525050915050919050565b6000600960003373ffffffffffffffffffffffffffffffffffffffff1673ffffffffffffffffffffffffffffffffffffffff1681526020019081526020016000208290806001815401808255809150506001900390600052602060002001600090919091909150556001600260003373ffffffffffffffffffffffffffffffffffffffff1673ffffffffffffffffffffffffffffffffffffffff168152602001908152602001600020600084815260200190815260200160002060006101000a81548160ff0219169083151502179055507f476247568c8561ac8a156c72413ed16335922e8965696b5313c2fc4dfd323329823342604051611fc5939291906136d0565b60405180910390a160019050919050565b60096020528160005260406000208181548110611ff257600080fd5b90600052602060002001600091509150505481565b6000600360008473ffffffffffffffffffffffffffffffffffffffff1673ffffffffffffffffffffffffffffffffffffffff16815260200190815260200160002060008373ffffffffffffffffffffffffffffffffffffffff1673ffffffffffffffffffffffffffffffffffffffff16815260200190815260200160002060009054906101000a900460ff16905092915050565b60606000600660008473ffffffffffffffffffffffffffffffffffffffff1673ffffffffffffffffffffffffffffffffffffffff1681526020019081526020016000208054905067ffffffffffffffff811115612121577f4e487b7100000000000000000000000000000000000000000000000000000000600052604160045260246000fd5b60405190808252806020026020018201604052801561215a57816020015b6121476126ea565b81526020019060019003908161213f5790505b50905060005b600660008573ffffffffffffffffffffffffffffffffffffffff1673ffffffffffffffffffffffffffffffffffffffff168152602001908152602001600020805490508110156125ef57600660008573ffffffffffffffffffffffffffffffffffffffff1673ffffffffffffffffffffffffffffffffffffffff1681526020019081526020016000208181548110612221577f4e487b7100000000000000000000000000000000000000000000000000000000600052603260045260246000fd5b90600052602060002001805461223690613960565b80601f016020809104026020016040519081016040528092919081815260200182805461226290613960565b80156122af5780601f10612284576101008083540402835291602001916122af565b820191906000526020600020905b81548152906001019060200180831161229257829003601f168201915b50505050508282815181106122ed577f4e487b7100000000000000000000000000000000000000000000000000000000600052603260045260246000fd5b602002602001015160000181905250600760008573ffffffffffffffffffffffffffffffffffffffff1673ffffffffffffffffffffffffffffffffffffffff168152602001908152602001600020600660008673ffffffffffffffffffffffffffffffffffffffff1673ffffffffffffffffffffffffffffffffffffffff16815260200190815260200160002082815481106123b2577f4e487b7100000000000000000000000000000000000000000000000000000000600052603260045260246000fd5b906000526020600020016040516123c991906133c2565b908152602001604051809103902080548060200260200160405190810160405280929190818152602001828054801561245757602002820191906000526020600020905b8160009054906101000a900473ffffffffffffffffffffffffffffffffffffffff1673ffffffffffffffffffffffffffffffffffffffff168152602001906001019080831161240d575b5050505050828281518110612495577f4e487b7100000000000000000000000000000000000000000000000000000000600052603260045260246000fd5b602002602001015160200181905250600860008573ffffffffffffffffffffffffffffffffffffffff1673ffffffffffffffffffffffffffffffffffffffff168152602001908152602001600020600660008673ffffffffffffffffffffffffffffffffffffffff1673ffffffffffffffffffffffffffffffffffffffff168152602001908152602001600020828154811061255a577f4e487b7100000000000000000000000000000000000000000000000000000000600052603260045260246000fd5b9060005260206000200160405161257191906133c2565b908152602001604051809103902060009054906101000a900460ff168282815181106125c6577f4e487b7100000000000000000000000000000000000000000000000000000000600052603260045260246000fd5b6020026020010151604001901515908115158152505080806125e790613992565b915050612160565b5080915050919050565b60008054906101000a900473ffffffffffffffffffffffffffffffffffffffff1681565b6040518060a00160405280600073ffffffffffffffffffffffffffffffffffffffff1681526020016060815260200160608152602001606081526020016000151581525090565b82805461267090613960565b90600052602060002090601f01602090048101928261269257600085556126d9565b82601f106126ab57805160ff19168380011785556126d9565b828001600101855582156126d9579182015b828111156126d85782518255916020019190600101906126bd565b5b5090506126e6919061270d565b5090565b604051806060016040528060608152602001606081526020016000151581525090565b5b8082111561272657600081600090555060010161270e565b5090565b600061273d61273884613738565b613707565b9050808382526020820190508285604086028201111561275c57600080fd5b60005b8581101561278c57816127728882612852565b84526020840193506040830192505060018101905061275f565b5050509392505050565b60006127a96127a484613764565b613707565b9050828152602081018484840111156127c157600080fd5b6127cc84828561391e565b509392505050565b6000813590506127e381613a79565b92915050565b600082601f8301126127fa57600080fd5b813561280a84826020860161272a565b91505092915050565b60008135905061282281613a90565b92915050565b600082601f83011261283957600080fd5b8135612849848260208601612796565b91505092915050565b60006040828403121561286457600080fd5b61286e6040613707565b9050600061287e848285016127d4565b600083015250602061289284828501612813565b60208301525092915050565b6000813590506128ad81613aa7565b92915050565b6000602082840312156128c557600080fd5b60006128d3848285016127d4565b91505092915050565b600080604083850312156128ef57600080fd5b60006128fd858286016127d4565b925050602061290e858286016127d4565b9150509250929050565b60008060006060848603121561292d57600080fd5b600061293b868287016127d4565b935050602061294c868287016127d4565b925050604061295d8682870161289e565b9150509250925092565b6000806040838503121561297a57600080fd5b6000612988858286016127d4565b925050602061299985828601612813565b9150509250929050565b600080604083850312156129b657600080fd5b60006129c4858286016127d4565b925050602083013567ffffffffffffffff8111156129e157600080fd5b6129ed85828601612828565b9150509250929050565b600080600060608486031215612a0c57600080fd5b6000612a1a868287016127d4565b935050602084013567ffffffffffffffff811115612a3757600080fd5b612a4386828701612828565b9250506040612a548682870161289e565b9150509250925092565b60008060408385031215612a7157600080fd5b6000612a7f858286016127d4565b9250506020612a908582860161289e565b9150509250929050565b60008060408385031215612aad57600080fd5b600083013567ffffffffffffffff811115612ac757600080fd5b612ad385828601612828565b925050602083013567ffffffffffffffff811115612af057600080fd5b612afc858286016127e9565b9150509250929050565b600080600060608486031215612b1b57600080fd5b600084013567ffffffffffffffff811115612b3557600080fd5b612b4186828701612828565b935050602084013567ffffffffffffffff811115612b5e57600080fd5b612b6a86828701612828565b925050604084013567ffffffffffffffff811115612b8757600080fd5b612b9386828701612828565b9150509250925092565b600060208284031215612baf57600080fd5b6000612bbd8482850161289e565b91505092915050565b6000612bd28383612c22565b60208301905092915050565b6000612bea8383613283565b905092915050565b6000612bfe838361335e565b60408301905092915050565b6000612c16838361338d565b60208301905092915050565b612c2b816138d6565b82525050565b612c3a816138d6565b82525050565b6000612c4b826137e9565b612c558185613854565b9350612c6083613794565b8060005b83811015612c91578151612c788882612bc6565b9750612c8383613820565b925050600181019050612c64565b5085935050505092915050565b6000612ca9826137e9565b612cb38185613865565b9350612cbe83613794565b8060005b83811015612cef578151612cd68882612bc6565b9750612ce183613820565b925050600181019050612cc2565b5085935050505092915050565b6000612d07826137f4565b612d118185613876565b935083602082028501612d23856137a4565b8060005b85811015612d5f5784840389528151612d408582612bde565b9450612d4b8361382d565b925060208a01995050600181019050612d27565b50829750879550505050505092915050565b6000612d7c826137ff565b612d868185613887565b9350612d91836137b4565b8060005b83811015612dc2578151612da98882612bf2565b9750612db48361383a565b925050600181019050612d95565b5085935050505092915050565b6000612dda8261380a565b612de48185613898565b9350612def836137c4565b8060005b83811015612e20578151612e078882612c0a565b9750612e1283613847565b925050600181019050612df3565b5085935050505092915050565b612e36816138e8565b82525050565b612e45816138e8565b82525050565b6000612e5682613815565b612e6081856138a9565b9350612e7081856020860161392d565b612e7981613a68565b840191505092915050565b6000612e8f82613815565b612e9981856138ba565b9350612ea981856020860161392d565b612eb281613a68565b840191505092915050565b6000612ec882613815565b612ed281856138cb565b9350612ee281856020860161392d565b80840191505092915050565b60008154612efb81613960565b612f0581866138cb565b94506001821660008114612f205760018114612f3157612f64565b60ff19831686528186019350612f64565b612f3a856137d4565b60005b83811015612f5c57815481890152600182019150602081019050612f3d565b838801955050505b50505092915050565b6000612f7a603c836138ba565b91507f5374616b65686f6c6465723a3a736574417070726f76616c466f72416c6c3a2060008301527f43616e6e6f742073657420617070726f76616c20666f722073656c66000000006020830152604082019050919050565b6000612fe0603a836138ba565b91507f5374616b65686f6c6465723a3a7472616e7366657246726f6d3a2043616e6e6f60008301527f74207472616e7366657220746f206e756c6c20616464726573730000000000006020830152604082019050919050565b60006130466043836138ba565b91507f4d616e7566616374757265723a3a72656769737465724d616e7566616374757260008301527f65723a204d616e75666163747572657220616c7265616479207265676973746560208301527f72656400000000000000000000000000000000000000000000000000000000006040830152606082019050919050565b60006130d26029836138ba565b91507f4f6e6c79207374616b65686f6c6465722063616e20616363657373207468697360008301527f2066756e6374696f6e00000000000000000000000000000000000000000000006020830152604082019050919050565b60006131386032836138ba565b91507f5374616b65686f6c6465723a3a7472616e7366657246726f6d3a2043616e6e6f60008301527f74207472616e7366657220746f2073656c6600000000000000000000000000006020830152604082019050919050565b600061319e602f836138ba565b91507f4f6e6c79206f776e6572206f7220617070726f7665642063616e20616363657360008301527f7320746869732066756e6374696f6e00000000000000000000000000000000006020830152604082019050919050565b60006132046044836138ba565b91507f5374616b65686f6c6465723a3a736574417070726f76616c466f72416c6c3a2060008301527f43616e6e6f742073657420617070726f76616c20666f72206e756c6c2061646460208301527f72657373000000000000000000000000000000000000000000000000000000006040830152606082019050919050565b600060608301600083015184820360008601526132a08282612e4b565b915050602083015184820360208601526132ba8282612c40565b91505060408301516132cf6040860182612e2d565b508091505092915050565b600060a0830160008301516132f26000860182612c22565b506020830151848203602086015261330a8282612e4b565b915050604083015184820360408601526133248282612e4b565b9150506060830151848203606086015261333e8282612e4b565b91505060808301516133536080860182612e2d565b508091505092915050565b6040820160008201516133746000850182612c22565b5060208201516133876020850182612e2d565b50505050565b61339681613914565b82525050565b6133a581613914565b82525050565b60006133b78284612ebd565b915081905092915050565b60006133ce8284612eee565b915081905092915050565b60006020820190506133ee6000830184612c31565b92915050565b60006060820190506134096000830186612c31565b6134166020830185612c31565b613423604083018461339c565b949350505050565b600060a0820190506134406000830188612c31565b81810360208301526134528187612e84565b905081810360408301526134668186612e84565b9050818103606083015261347a8185612e84565b9050613489608083018461339c565b9695505050505050565b600060208201905081810360008301526134ad8184612c9e565b905092915050565b600060208201905081810360008301526134cf8184612cfc565b905092915050565b60006020820190506134ec6000830184612e3c565b92915050565b6000602082019050818103600083015261350c8184612e84565b905092915050565b6000606082019050818103600083015261352e8186612e84565b905081810360208301526135428185612d71565b9050613551604083018461339c565b949350505050565b6000602082019050818103600083015261357281612f6d565b9050919050565b6000602082019050818103600083015261359281612fd3565b9050919050565b600060208201905081810360008301526135b281613039565b9050919050565b600060208201905081810360008301526135d2816130c5565b9050919050565b600060208201905081810360008301526135f28161312b565b9050919050565b6000602082019050818103600083015261361281613191565b9050919050565b60006020820190508181036000830152613632816131f7565b9050919050565b6000602082019050818103600083015261365381846132da565b905092915050565b6000608082019050818103600083015261367581876132da565b90506136846020830186612e3c565b81810360408301526136968185612cfc565b905081810360608301526136aa8184612dcf565b905095945050505050565b60006020820190506136ca600083018461339c565b92915050565b60006060820190506136e5600083018661339c565b6136f26020830185612c31565b6136ff604083018461339c565b949350505050565b6000604051905081810181811067ffffffffffffffff8211171561372e5761372d613a39565b5b8060405250919050565b600067ffffffffffffffff82111561375357613752613a39565b5b602082029050602081019050919050565b600067ffffffffffffffff82111561377f5761377e613a39565b5b601f19601f8301169050602081019050919050565b6000819050602082019050919050565b6000819050602082019050919050565b6000819050602082019050919050565b6000819050602082019050919050565b60008190508160005260206000209050919050565b600081519050919050565b600081519050919050565b600081519050919050565b600081519050919050565b600081519050919050565b6000602082019050919050565b6000602082019050919050565b6000602082019050919050565b6000602082019050919050565b600082825260208201905092915050565b600082825260208201905092915050565b600082825260208201905092915050565b600082825260208201905092915050565b600082825260208201905092915050565b600082825260208201905092915050565b600082825260208201905092915050565b600081905092915050565b60006138e1826138f4565b9050919050565b60008115159050919050565b600073ffffffffffffffffffffffffffffffffffffffff82169050919050565b6000819050919050565b82818337600083830152505050565b60005b8381101561394b578082015181840152602081019050613930565b8381111561395a576000848401525b50505050565b6000600282049050600182168061397857607f821691505b6020821081141561398c5761398b613a0a565b5b50919050565b600061399d82613914565b91507fffffffffffffffffffffffffffffffffffffffffffffffffffffffffffffffff8214156139d0576139cf6139db565b5b600182019050919050565b7f4e487b7100000000000000000000000000000000000000000000000000000000600052601160045260246000fd5b7f4e487b7100000000000000000000000000000000000000000000000000000000600052602260045260246000fd5b7f4e487b7100000000000000000000000000000000000000000000000000000000600052604160045260246000fd5b6000601f19601f8301169050919050565b613a82816138d6565b8114613a8d57600080fd5b50565b613a99816138e8565b8114613aa457600080fd5b50565b613ab081613914565b8114613abb57600080fd5b5056fea26469706673582212202466206b36f45177906177c9a73ea97b9d3c7323348bd1c0a0dca099f9c7ff7064736f6c63430008000033",
  "immutableReferences": {},
  "source": "// SPDX-License-Identifier: MIT\npragma solidity ^0.8.0;\nimport \"./Stakeholder.sol\";\nimport \"./Farmer.sol\";\n\ncontract Manufacturer is Stakeholder {\n    struct rawProduct {\n        string name;\n        address[] boughtFromIds;\n        bool isVerified;\n    }\n\n    struct supplier {\n        address id;\n        bool isVerified;\n    }\n\n    event RegisterManufacturer(\n        address manufacturer,\n        string name,\n        string location,\n        string role,\n        uint registerTime\n    );\n    event AddRawProduct(\n        string rawProductName,\n        supplier[] suppliers,\n        address indexed manufaturer,\n        uint addRawProductTime\n    );\n    event LaunchProduct(uint256 productId, address producer, uint launchTime);\n    event UpdateEnergy(address id, address manufaturer, uint updateTime);\n\n    mapping(address => bool) public _isRenewableUsed;\n    mapping(address => string[]) public _rawProducts;\n    mapping(address => mapping(string => address[]))\n        public _rawProductSuppliers;\n    mapping(address => mapping(string => bool)) public _rawProductVerified;\n    mapping(address => uint256[]) public _launchedProducts;\n\n    constructor() Stakeholder() {}\n\n    function register(\n        string memory _name,\n        string memory _location,\n        string memory _role\n    ) public override returns (bool) {\n        require(\n            _stakeholders[msg.sender].id == address(0),\n            \"Manufacturer::registerManufacturer: Manufacturer already registered\"\n        );\n        _stakeholders[msg.sender] = stakeholder(\n            msg.sender,\n            _name,\n            _location,\n            _role,\n            false\n        );\n        _isRenewableUsed[msg.sender] = false;\n        _stakeholderAddresses.push(msg.sender);\n        emit RegisterManufacturer(\n            msg.sender,\n            _name,\n            _location,\n            _role,\n            block.timestamp\n        );\n        return true;\n    }\n\n    function addRawProduct(\n        string memory _name,\n        supplier[] memory _suppliers\n    ) public returns (bool) {\n        bool productAlreadyAdded = false;\n        for (uint i = 0; i < _rawProducts[msg.sender].length; i++) {\n            if (\n                keccak256(abi.encodePacked((_rawProducts[msg.sender][i]))) ==\n                keccak256(abi.encodePacked((_name)))\n            ) {\n                productAlreadyAdded = true;\n            }\n        }\n        if (!productAlreadyAdded) {\n            _rawProducts[msg.sender].push(_name);\n        }\n        _rawProductVerified[msg.sender][_name] = true;\n        for (uint i = 0; i < _suppliers.length; i++) {\n            _rawProductSuppliers[msg.sender][_name].push(_suppliers[i].id);\n            _rawProductVerified[msg.sender][_name] =\n                _rawProductVerified[msg.sender][_name] &&\n                _suppliers[i].isVerified;\n        }\n        emit AddRawProduct(_name, _suppliers, msg.sender, block.timestamp);\n        return true;\n    }\n\n    function getManufacturerRawProductDetails(\n        address _id\n    ) public view returns (rawProduct[] memory) {\n        rawProduct[] memory rawProducts = new rawProduct[](\n            _rawProducts[_id].length\n        );\n        for (uint i = 0; i < _rawProducts[_id].length; i++) {\n            rawProducts[i].name = _rawProducts[_id][i];\n            rawProducts[i].boughtFromIds = _rawProductSuppliers[_id][\n                _rawProducts[_id][i]\n            ];\n            rawProducts[i].isVerified = _rawProductVerified[_id][\n                _rawProducts[_id][i]\n            ];\n        }\n        return rawProducts;\n    }\n\n    function getManufacturer(\n        address id\n    )\n        public\n        view\n        returns (\n            stakeholder memory manufacturer,\n            bool isRenewableUsed,\n            rawProduct[] memory rawProducts,\n            uint256[] memory launchedProductIds\n        )\n    {\n        manufacturer = stakeholder(\n            id,\n            _stakeholders[id].name,\n            _stakeholders[id].location,\n            _stakeholders[id].role,\n            _stakeholders[id].isVerified\n        );\n        isRenewableUsed = _isRenewableUsed[id];\n        rawProducts = getManufacturerRawProductDetails(id);\n        launchedProductIds = _launchedProducts[id];\n    }\n\n    function launchProduct(uint256 _id) public returns (bool) {\n        _launchedProducts[msg.sender].push(_id);\n        _stakeholderProductOwnership[msg.sender][_id] = true;\n        emit LaunchProduct(_id, msg.sender, block.timestamp);\n        return true;\n    }\n\n    function updateEnergy(address id) public onlyAdmin returns (bool) {\n        _isRenewableUsed[id] = true;\n        emit UpdateEnergy(id, msg.sender, block.timestamp);\n        return true;\n    }\n}\n",
  "sourcePath": "/home/lequocvieet/Desktop/DATN/supply-chain/src/Smart-Contract/Contracts/Manufacturer.sol",
  "compiler": {
    "name": "solc",
    "version": "0.8.0+commit.c7dfd78e.Emscripten.clang"
  },
  "schemaVersion": "3.4.14",
  "updatedAt": "2023-06-12T14:26:19.387Z",
  "networkType": "ethereum",
  "devdoc": {
    "kind": "dev",
    "methods": {},
    "version": 1
  },
  "userdoc": {
    "kind": "user",
    "methods": {},
    "version": 1
  }
}