{
  "contractName": "Product",
  "abi": [
    {
      "inputs": [],
      "stateMutability": "nonpayable",
      "type": "constructor"
    },
    {
      "anonymous": false,
      "inputs": [
        {
          "indexed": false,
          "internalType": "uint256",
          "name": "id",
          "type": "uint256"
        },
        {
          "indexed": false,
          "internalType": "string",
          "name": "title",
          "type": "string"
        },
        {
          "components": [
            {
              "internalType": "string",
              "name": "name",
              "type": "string"
            },
            {
              "internalType": "bool",
              "name": "isVerified",
              "type": "bool"
            }
          ],
          "indexed": false,
          "internalType": "struct Product.RawProduct[]",
          "name": "rawProducts",
          "type": "tuple[]"
        },
        {
          "indexed": false,
          "internalType": "string",
          "name": "imageUrl",
          "type": "string"
        },
        {
          "indexed": true,
          "internalType": "address",
          "name": "_manufacturer",
          "type": "address"
        },
        {
          "indexed": false,
          "internalType": "uint256",
          "name": "addTime",
          "type": "uint256"
        }
      ],
      "name": "Add",
      "type": "event"
    },
    {
      "anonymous": false,
      "inputs": [
        {
          "indexed": true,
          "internalType": "address",
          "name": "reviewer",
          "type": "address"
        },
        {
          "indexed": false,
          "internalType": "uint256",
          "name": "productId",
          "type": "uint256"
        },
        {
          "indexed": false,
          "internalType": "uint256",
          "name": "rating",
          "type": "uint256"
        },
        {
          "indexed": false,
          "internalType": "string",
          "name": "comment",
          "type": "string"
        },
        {
          "indexed": false,
          "internalType": "uint256",
          "name": "reviewTime",
          "type": "uint256"
        }
      ],
      "name": "AddReview",
      "type": "event"
    },
    {
      "anonymous": false,
      "inputs": [
        {
          "indexed": true,
          "internalType": "address",
          "name": "sender",
          "type": "address"
        },
        {
          "indexed": true,
          "internalType": "address",
          "name": "receiver",
          "type": "address"
        },
        {
          "indexed": false,
          "internalType": "uint256",
          "name": "productId",
          "type": "uint256"
        },
        {
          "indexed": false,
          "internalType": "uint256",
          "name": "transferTime",
          "type": "uint256"
        }
      ],
      "name": "Transfer",
      "type": "event"
    },
    {
      "inputs": [
        {
          "internalType": "uint256",
          "name": "",
          "type": "uint256"
        }
      ],
      "name": "_itemIds",
      "outputs": [
        {
          "internalType": "uint256",
          "name": "",
          "type": "uint256"
        }
      ],
      "stateMutability": "view",
      "type": "function",
      "constant": true
    },
    {
      "inputs": [
        {
          "internalType": "uint256",
          "name": "",
          "type": "uint256"
        }
      ],
      "name": "_items",
      "outputs": [
        {
          "internalType": "uint256",
          "name": "id",
          "type": "uint256"
        },
        {
          "internalType": "string",
          "name": "title",
          "type": "string"
        },
        {
          "internalType": "address",
          "name": "manufacturer",
          "type": "address"
        },
        {
          "internalType": "address",
          "name": "currentOwner",
          "type": "address"
        },
        {
          "internalType": "address",
          "name": "lastOwner",
          "type": "address"
        },
        {
          "internalType": "uint256",
          "name": "rating",
          "type": "uint256"
        },
        {
          "internalType": "uint256",
          "name": "launchDate",
          "type": "uint256"
        },
        {
          "internalType": "string",
          "name": "image_url",
          "type": "string"
        }
      ],
      "stateMutability": "view",
      "type": "function",
      "constant": true
    },
    {
      "inputs": [
        {
          "internalType": "uint256",
          "name": "_id",
          "type": "uint256"
        },
        {
          "internalType": "string",
          "name": "_title",
          "type": "string"
        },
        {
          "components": [
            {
              "internalType": "string",
              "name": "name",
              "type": "string"
            },
            {
              "internalType": "bool",
              "name": "isVerified",
              "type": "bool"
            }
          ],
          "internalType": "struct Product.RawProduct[]",
          "name": "_rawProducts",
          "type": "tuple[]"
        },
        {
          "internalType": "string",
          "name": "image_url",
          "type": "string"
        }
      ],
      "name": "add",
      "outputs": [
        {
          "internalType": "bool",
          "name": "",
          "type": "bool"
        }
      ],
      "stateMutability": "nonpayable",
      "type": "function"
    },
    {
      "inputs": [
        {
          "internalType": "uint256",
          "name": "_id",
          "type": "uint256"
        }
      ],
      "name": "get",
      "outputs": [
        {
          "components": [
            {
              "internalType": "uint256",
              "name": "id",
              "type": "uint256"
            },
            {
              "internalType": "string",
              "name": "title",
              "type": "string"
            },
            {
              "internalType": "address",
              "name": "manufacturer",
              "type": "address"
            },
            {
              "internalType": "address",
              "name": "currentOwner",
              "type": "address"
            },
            {
              "internalType": "address",
              "name": "lastOwner",
              "type": "address"
            },
            {
              "internalType": "uint256",
              "name": "rating",
              "type": "uint256"
            },
            {
              "internalType": "uint256",
              "name": "launchDate",
              "type": "uint256"
            },
            {
              "internalType": "string",
              "name": "image_url",
              "type": "string"
            }
          ],
          "internalType": "struct Product.Item",
          "name": "item",
          "type": "tuple"
        },
        {
          "components": [
            {
              "internalType": "uint256",
              "name": "txId",
              "type": "uint256"
            },
            {
              "internalType": "address",
              "name": "from",
              "type": "address"
            },
            {
              "internalType": "address",
              "name": "to",
              "type": "address"
            },
            {
              "internalType": "uint256",
              "name": "date",
              "type": "uint256"
            }
          ],
          "internalType": "struct Product.Transaction[]",
          "name": "transactions",
          "type": "tuple[]"
        },
        {
          "components": [
            {
              "internalType": "uint256",
              "name": "id",
              "type": "uint256"
            },
            {
              "internalType": "uint256",
              "name": "date",
              "type": "uint256"
            },
            {
              "internalType": "uint256",
              "name": "rating",
              "type": "uint256"
            },
            {
              "internalType": "string",
              "name": "comment",
              "type": "string"
            },
            {
              "internalType": "address",
              "name": "reviewer",
              "type": "address"
            }
          ],
          "internalType": "struct Product.Review[]",
          "name": "reviews",
          "type": "tuple[]"
        },
        {
          "components": [
            {
              "internalType": "string",
              "name": "name",
              "type": "string"
            },
            {
              "internalType": "bool",
              "name": "isVerified",
              "type": "bool"
            }
          ],
          "internalType": "struct Product.RawProduct[]",
          "name": "rawProducts",
          "type": "tuple[]"
        }
      ],
      "stateMutability": "view",
      "type": "function",
      "constant": true
    },
    {
      "inputs": [
        {
          "internalType": "address",
          "name": "_to",
          "type": "address"
        },
        {
          "internalType": "uint256",
          "name": "_id",
          "type": "uint256"
        }
      ],
      "name": "transfer",
      "outputs": [
        {
          "internalType": "bool",
          "name": "",
          "type": "bool"
        }
      ],
      "stateMutability": "nonpayable",
      "type": "function"
    },
    {
      "inputs": [
        {
          "internalType": "uint256",
          "name": "_id",
          "type": "uint256"
        },
        {
          "internalType": "uint256",
          "name": "_rating",
          "type": "uint256"
        },
        {
          "internalType": "string",
          "name": "_comment",
          "type": "string"
        }
      ],
      "name": "addReview",
      "outputs": [
        {
          "internalType": "bool",
          "name": "",
          "type": "bool"
        }
      ],
      "stateMutability": "nonpayable",
      "type": "function"
    },
    {
      "inputs": [],
      "name": "getItemIds",
      "outputs": [
        {
          "internalType": "uint256[]",
          "name": "",
          "type": "uint256[]"
        }
      ],
      "stateMutability": "view",
      "type": "function",
      "constant": true
    },
    {
      "inputs": [],
      "name": "getProductsCount",
      "outputs": [
        {
          "internalType": "uint256",
          "name": "",
          "type": "uint256"
        }
      ],
      "stateMutability": "view",
      "type": "function",
      "constant": true
    },
    {
      "inputs": [],
      "name": "getTransactionsCount",
      "outputs": [
        {
          "internalType": "uint256",
          "name": "",
          "type": "uint256"
        }
      ],
      "stateMutability": "view",
      "type": "function",
      "constant": true
    },
    {
      "inputs": [],
      "name": "getReviewsCount",
      "outputs": [
        {
          "internalType": "uint256",
          "name": "",
          "type": "uint256"
        }
      ],
      "stateMutability": "view",
      "type": "function",
      "constant": true
    }
  ],
  "bytecode": "0x608060405234801561001057600080fd5b5060006007819055506000600881905550612afe806100306000396000f3fe608060405234801561001057600080fd5b506004361061009e5760003560e01c80637967c929116100665780637967c929146101645780639507d39a14610194578063a9059cbb146101c7578063ef0614b9146101f7578063f8e7284a146102155761009e565b80631435ba3c146100a35780633e9e27aa146100c157806344029410146100f15780635786fd4014610128578063578cb8f914610146575b600080fd5b6100ab610245565b6040516100b891906124ae565b60405180910390f35b6100db60048036038101906100d69190611c82565b61024f565b6040516100e89190612392565b60405180910390f35b61010b60048036038101906101069190611bae565b61050b565b60405161011f9897969594939291906124c9565b60405180910390f35b6101306106c3565b60405161013d91906124ae565b60405180910390f35b61014e6106cf565b60405161015b91906124ae565b60405180910390f35b61017e60048036038101906101799190611bd7565b6106d9565b60405161018b9190612392565b60405180910390f35b6101ae60048036038101906101a99190611bae565b610a78565b6040516101be949392919061244d565b60405180910390f35b6101e160048036038101906101dc9190611b72565b6112cb565b6040516101ee9190612392565b60405180910390f35b6101ff6117a1565b60405161020c9190612370565b60405180910390f35b61022f600480360381019061022a9190611bae565b6117f9565b60405161023c91906124ae565b60405180910390f35b6000600854905090565b60003373ffffffffffffffffffffffffffffffffffffffff166001600086815260200190815260200160002060030160009054906101000a900473ffffffffffffffffffffffffffffffffffffffff1673ffffffffffffffffffffffffffffffffffffffff16146102f5576040517f08c379a00000000000000000000000000000000000000000000000000000000081526004016102ec9061242d565b60405180910390fd5b6040518060a0016040528060085481526020014281526020018481526020018381526020013373ffffffffffffffffffffffffffffffffffffffff16815250600260006008548152602001908152602001600020600082015181600001556020820151816001015560408201518160020155606082015181600301908051906020019061038392919061181d565b5060808201518160040160006101000a81548173ffffffffffffffffffffffffffffffffffffffff021916908373ffffffffffffffffffffffffffffffffffffffff160217905550905050600160056000868152602001908152602001600020805490506103f191906127d0565b836005600087815260200190815260200160002080549050600160008881526020019081526020016000206005015461042a9190612857565b61043491906127d0565b61043e9190612826565b6001600086815260200190815260200160002060050181905550600560008581526020019081526020016000206008549080600181540180825580915050600190039060005260206000200160009091909190915055600860008154809291906104a79061296d565b91905055503373ffffffffffffffffffffffffffffffffffffffff167feeabccd92756bf7ee6ca02bd6cab94b720c24bc4e1cba51d7d5bd4c01ee3fec0858585426040516104f894939291906125e6565b60405180910390a2600190509392505050565b60016020528060005260406000206000915090508060000154908060010180546105349061293b565b80601f01602080910402602001604051908101604052809291908181526020018280546105609061293b565b80156105ad5780601f10610582576101008083540402835291602001916105ad565b820191906000526020600020905b81548152906001019060200180831161059057829003601f168201915b5050505050908060020160009054906101000a900473ffffffffffffffffffffffffffffffffffffffff16908060030160009054906101000a900473ffffffffffffffffffffffffffffffffffffffff16908060040160009054906101000a900473ffffffffffffffffffffffffffffffffffffffff16908060050154908060060154908060070180546106409061293b565b80601f016020809104026020016040519081016040528092919081815260200182805461066c9061293b565b80156106b95780601f1061068e576101008083540402835291602001916106b9565b820191906000526020600020905b81548152906001019060200180831161069c57829003601f168201915b5050505050905088565b60008080549050905090565b6000600754905090565b600080339050600073ffffffffffffffffffffffffffffffffffffffff168173ffffffffffffffffffffffffffffffffffffffff16141561074f576040517f08c379a0000000000000000000000000000000000000000000000000000000008152600401610746906123ed565b60405180910390fd5b6040518061010001604052808781526020018681526020018273ffffffffffffffffffffffffffffffffffffffff1681526020018273ffffffffffffffffffffffffffffffffffffffff168152602001600073ffffffffffffffffffffffffffffffffffffffff16815260200160008152602001428152602001848152506001600088815260200190815260200160002060008201518160000155602082015181600101908051906020019061080692919061181d565b5060408201518160020160006101000a81548173ffffffffffffffffffffffffffffffffffffffff021916908373ffffffffffffffffffffffffffffffffffffffff16021790555060608201518160030160006101000a81548173ffffffffffffffffffffffffffffffffffffffff021916908373ffffffffffffffffffffffffffffffffffffffff16021790555060808201518160040160006101000a81548173ffffffffffffffffffffffffffffffffffffffff021916908373ffffffffffffffffffffffffffffffffffffffff16021790555060a0820151816005015560c0820151816006015560e082015181600701908051906020019061090c92919061181d565b5090505060005b84518110156109eb5760066000888152602001908152602001600020858281518110610968577f4e487b7100000000000000000000000000000000000000000000000000000000600052603260045260246000fd5b6020026020010151908060018154018082558091505060019003906000526020600020906002020160009091909190915060008201518160000190805190602001906109b592919061181d565b5060208201518160010160006101000a81548160ff021916908315150217905550505080806109e39061296d565b915050610913565b5060008690806001815401808255809150506001900390600052602060002001600090919091909150553373ffffffffffffffffffffffffffffffffffffffff167fb905477fe689e1c44eebf1e6654fe53ce311183e9204238387410fc992418a228787878742604051610a63959493929190612555565b60405180910390a26001915050949350505050565b610a806118a3565b6060806060600160008681526020019081526020016000206040518061010001604052908160008201548152602001600182018054610abe9061293b565b80601f0160208091040260200160405190810160405280929190818152602001828054610aea9061293b565b8015610b375780601f10610b0c57610100808354040283529160200191610b37565b820191906000526020600020905b815481529060010190602001808311610b1a57829003601f168201915b505050505081526020016002820160009054906101000a900473ffffffffffffffffffffffffffffffffffffffff1673ffffffffffffffffffffffffffffffffffffffff1673ffffffffffffffffffffffffffffffffffffffff1681526020016003820160009054906101000a900473ffffffffffffffffffffffffffffffffffffffff1673ffffffffffffffffffffffffffffffffffffffff1673ffffffffffffffffffffffffffffffffffffffff1681526020016004820160009054906101000a900473ffffffffffffffffffffffffffffffffffffffff1673ffffffffffffffffffffffffffffffffffffffff1673ffffffffffffffffffffffffffffffffffffffff1681526020016005820154815260200160068201548152602001600782018054610c669061293b565b80601f0160208091040260200160405190810160405280929190818152602001828054610c929061293b565b8015610cdf5780601f10610cb457610100808354040283529160200191610cdf565b820191906000526020600020905b815481529060010190602001808311610cc257829003601f168201915b5050505050815250509350600460008681526020019081526020016000208054905067ffffffffffffffff811115610d40577f4e487b7100000000000000000000000000000000000000000000000000000000600052604160045260246000fd5b604051908082528060200260200182016040528015610d7957816020015b610d6661192a565b815260200190600190039081610d5e5790505b50925060005b6004600087815260200190815260200160002080549050811015610f275760036000600460008981526020019081526020016000208381548110610dec577f4e487b7100000000000000000000000000000000000000000000000000000000600052603260045260246000fd5b90600052602060002001548152602001908152602001600020604051806080016040529081600082015481526020016001820160009054906101000a900473ffffffffffffffffffffffffffffffffffffffff1673ffffffffffffffffffffffffffffffffffffffff1673ffffffffffffffffffffffffffffffffffffffff1681526020016002820160009054906101000a900473ffffffffffffffffffffffffffffffffffffffff1673ffffffffffffffffffffffffffffffffffffffff1673ffffffffffffffffffffffffffffffffffffffff168152602001600382015481525050848281518110610f09577f4e487b7100000000000000000000000000000000000000000000000000000000600052603260045260246000fd5b60200260200101819052508080610f1f9061296d565b915050610d7f565b50600560008681526020019081526020016000208054905067ffffffffffffffff811115610f7e577f4e487b7100000000000000000000000000000000000000000000000000000000600052604160045260246000fd5b604051908082528060200260200182016040528015610fb757816020015b610fa461197e565b815260200190600190039081610f9c5790505b50915060005b60056000878152602001908152602001600020805490508110156111ab576002600060056000898152602001908152602001600020838154811061102a577f4e487b7100000000000000000000000000000000000000000000000000000000600052603260045260246000fd5b906000526020600020015481526020019081526020016000206040518060a001604052908160008201548152602001600182015481526020016002820154815260200160038201805461107c9061293b565b80601f01602080910402602001604051908101604052809291908181526020018280546110a89061293b565b80156110f55780601f106110ca576101008083540402835291602001916110f5565b820191906000526020600020905b8154815290600101906020018083116110d857829003601f168201915b505050505081526020016004820160009054906101000a900473ffffffffffffffffffffffffffffffffffffffff1673ffffffffffffffffffffffffffffffffffffffff1673ffffffffffffffffffffffffffffffffffffffff168152505083828151811061118d577f4e487b7100000000000000000000000000000000000000000000000000000000600052603260045260246000fd5b602002602001018190525080806111a39061296d565b915050610fbd565b5060066000868152602001908152602001600020805480602002602001604051908101604052809291908181526020016000905b828210156112be57838290600052602060002090600202016040518060400160405290816000820180546112129061293b565b80601f016020809104026020016040519081016040528092919081815260200182805461123e9061293b565b801561128b5780601f106112605761010080835404028352916020019161128b565b820191906000526020600020905b81548152906001019060200180831161126e57829003601f168201915b505050505081526020016001820160009054906101000a900460ff161515151581525050815260200190600101906111df565b5050505090509193509193565b60008073ffffffffffffffffffffffffffffffffffffffff166001600084815260200190815260200160002060030160009054906101000a900473ffffffffffffffffffffffffffffffffffffffff1673ffffffffffffffffffffffffffffffffffffffff161415611372576040517f08c379a0000000000000000000000000000000000000000000000000000000008152600401611369906123ad565b60405180910390fd5b8273ffffffffffffffffffffffffffffffffffffffff166001600084815260200190815260200160002060030160009054906101000a900473ffffffffffffffffffffffffffffffffffffffff1673ffffffffffffffffffffffffffffffffffffffff161415611417576040517f08c379a000000000000000000000000000000000000000000000000000000000815260040161140e906123cd565b60405180910390fd5b600073ffffffffffffffffffffffffffffffffffffffff168373ffffffffffffffffffffffffffffffffffffffff161415611487576040517f08c379a000000000000000000000000000000000000000000000000000000000815260040161147e9061240d565b60405180910390fd5b6001600083815260200190815260200160002060030160009054906101000a900473ffffffffffffffffffffffffffffffffffffffff166001600084815260200190815260200160002060040160006101000a81548173ffffffffffffffffffffffffffffffffffffffff021916908373ffffffffffffffffffffffffffffffffffffffff160217905550826001600084815260200190815260200160002060030160006101000a81548173ffffffffffffffffffffffffffffffffffffffff021916908373ffffffffffffffffffffffffffffffffffffffff160217905550604051806080016040528060075481526020016001600085815260200190815260200160002060040160009054906101000a900473ffffffffffffffffffffffffffffffffffffffff1673ffffffffffffffffffffffffffffffffffffffff1681526020016001600085815260200190815260200160002060030160009054906101000a900473ffffffffffffffffffffffffffffffffffffffff1673ffffffffffffffffffffffffffffffffffffffff168152602001428152506003600060075481526020019081526020016000206000820151816000015560208201518160010160006101000a81548173ffffffffffffffffffffffffffffffffffffffff021916908373ffffffffffffffffffffffffffffffffffffffff16021790555060408201518160020160006101000a81548173ffffffffffffffffffffffffffffffffffffffff021916908373ffffffffffffffffffffffffffffffffffffffff160217905550606082015181600301559050506004600083815260200190815260200160002060075490806001815401808255809150506001900390600052602060002001600090919091909150556007600081548092919061172b9061296d565b91905055508273ffffffffffffffffffffffffffffffffffffffff163373ffffffffffffffffffffffffffffffffffffffff167f9ed053bb818ff08b8353cd46f78db1f0799f31c9e4458fdb425c10eccd2efc44844260405161178f9291906125bd565b60405180910390a36001905092915050565b606060008054806020026020016040519081016040528092919081815260200182805480156117ef57602002820191906000526020600020905b8154815260200190600101908083116117db575b5050505050905090565b6000818154811061180957600080fd5b906000526020600020016000915090505481565b8280546118299061293b565b90600052602060002090601f01602090048101928261184b5760008555611892565b82601f1061186457805160ff1916838001178555611892565b82800160010185558215611892579182015b82811115611891578251825591602001919060010190611876565b5b50905061189f91906119c3565b5090565b6040518061010001604052806000815260200160608152602001600073ffffffffffffffffffffffffffffffffffffffff168152602001600073ffffffffffffffffffffffffffffffffffffffff168152602001600073ffffffffffffffffffffffffffffffffffffffff1681526020016000815260200160008152602001606081525090565b604051806080016040528060008152602001600073ffffffffffffffffffffffffffffffffffffffff168152602001600073ffffffffffffffffffffffffffffffffffffffff168152602001600081525090565b6040518060a0016040528060008152602001600081526020016000815260200160608152602001600073ffffffffffffffffffffffffffffffffffffffff1681525090565b5b808211156119dc5760008160009055506001016119c4565b5090565b60006119f36119ee84612663565b612632565b9050808382526020820190508260005b85811015611a335781358501611a198882611af9565b845260208401935060208301925050600181019050611a03565b5050509392505050565b6000611a50611a4b8461268f565b612632565b905082815260208101848484011115611a6857600080fd5b611a738482856128f9565b509392505050565b600081359050611a8a81612a83565b92915050565b600082601f830112611aa157600080fd5b8135611ab18482602086016119e0565b91505092915050565b600081359050611ac981612a9a565b92915050565b600082601f830112611ae057600080fd5b8135611af0848260208601611a3d565b91505092915050565b600060408284031215611b0b57600080fd5b611b156040612632565b9050600082013567ffffffffffffffff811115611b3157600080fd5b611b3d84828501611acf565b6000830152506020611b5184828501611aba565b60208301525092915050565b600081359050611b6c81612ab1565b92915050565b60008060408385031215611b8557600080fd5b6000611b9385828601611a7b565b9250506020611ba485828601611b5d565b9150509250929050565b600060208284031215611bc057600080fd5b6000611bce84828501611b5d565b91505092915050565b60008060008060808587031215611bed57600080fd5b6000611bfb87828801611b5d565b945050602085013567ffffffffffffffff811115611c1857600080fd5b611c2487828801611acf565b935050604085013567ffffffffffffffff811115611c4157600080fd5b611c4d87828801611a90565b925050606085013567ffffffffffffffff811115611c6a57600080fd5b611c7687828801611acf565b91505092959194509250565b600080600060608486031215611c9757600080fd5b6000611ca586828701611b5d565b9350506020611cb686828701611b5d565b925050604084013567ffffffffffffffff811115611cd357600080fd5b611cdf86828701611acf565b9150509250925092565b6000611cf5838361224a565b905092915050565b6000611d098383612287565b905092915050565b6000611d1d83836122fd565b60808301905092915050565b6000611d358383612352565b60208301905092915050565b611d4a816128b1565b82525050565b611d59816128b1565b82525050565b6000611d6a826126ff565b611d74818561276a565b935083602082028501611d86856126bf565b8060005b85811015611dc25784840389528151611da38582611ce9565b9450611dae83612736565b925060208a01995050600181019050611d8a565b50829750879550505050505092915050565b6000611ddf8261270a565b611de9818561277b565b935083602082028501611dfb856126cf565b8060005b85811015611e375784840389528151611e188582611cfd565b9450611e2383612743565b925060208a01995050600181019050611dff565b50829750879550505050505092915050565b6000611e5482612715565b611e5e818561278c565b9350611e69836126df565b8060005b83811015611e9a578151611e818882611d11565b9750611e8c83612750565b925050600181019050611e6d565b5085935050505092915050565b6000611eb282612720565b611ebc818561279d565b9350611ec7836126ef565b8060005b83811015611ef8578151611edf8882611d29565b9750611eea8361275d565b925050600181019050611ecb565b5085935050505092915050565b611f0e816128c3565b82525050565b611f1d816128c3565b82525050565b6000611f2e8261272b565b611f3881856127ae565b9350611f48818560208601612908565b611f5181612a72565b840191505092915050565b6000611f678261272b565b611f7181856127bf565b9350611f81818560208601612908565b611f8a81612a72565b840191505092915050565b6000611fa26029836127bf565b91507f50726f647563743a3a7472616e736665723a2050726f6475637420646f65732060008301527f6e6f7420657869737400000000000000000000000000000000000000000000006020830152604082019050919050565b6000612008602a836127bf565b91507f50726f647563743a3a7472616e736665723a2043616e6e6f74207472616e736660008301527f657220746f2073656c66000000000000000000000000000000000000000000006020830152604082019050919050565b600061206e6029836127bf565b91507f50726f647563743a3a6164643a204d616e7566616374757265722063616e6e6f60008301527f74206265206e756c6c00000000000000000000000000000000000000000000006020830152604082019050919050565b60006120d46032836127bf565b91507f50726f647563743a3a7472616e736665723a2043616e6e6f74207472616e736660008301527f657220746f206e756c6c206164647265737300000000000000000000000000006020830152604082019050919050565b600061213a6035836127bf565b91507f50726f647563743a3a6164645265766965773a204f6e6c792063757272656e7460008301527f206f776e65722063616e206164642072657669657700000000000000000000006020830152604082019050919050565b6000610100830160008301516121ac6000860182612352565b50602083015184820360208601526121c48282611f23565b91505060408301516121d96040860182611d41565b5060608301516121ec6060860182611d41565b5060808301516121ff6080860182611d41565b5060a083015161221260a0860182612352565b5060c083015161222560c0860182612352565b5060e083015184820360e086015261223d8282611f23565b9150508091505092915050565b600060408301600083015184820360008601526122678282611f23565b915050602083015161227c6020860182611f05565b508091505092915050565b600060a08301600083015161229f6000860182612352565b5060208301516122b26020860182612352565b5060408301516122c56040860182612352565b50606083015184820360608601526122dd8282611f23565b91505060808301516122f26080860182611d41565b508091505092915050565b6080820160008201516123136000850182612352565b5060208201516123266020850182611d41565b5060408201516123396040850182611d41565b50606082015161234c6060850182612352565b50505050565b61235b816128ef565b82525050565b61236a816128ef565b82525050565b6000602082019050818103600083015261238a8184611ea7565b905092915050565b60006020820190506123a76000830184611f14565b92915050565b600060208201905081810360008301526123c681611f95565b9050919050565b600060208201905081810360008301526123e681611ffb565b9050919050565b6000602082019050818103600083015261240681612061565b9050919050565b60006020820190508181036000830152612426816120c7565b9050919050565b600060208201905081810360008301526124468161212d565b9050919050565b600060808201905081810360008301526124678187612193565b9050818103602083015261247b8186611e49565b9050818103604083015261248f8185611dd4565b905081810360608301526124a38184611d5f565b905095945050505050565b60006020820190506124c36000830184612361565b92915050565b6000610100820190506124df600083018b612361565b81810360208301526124f1818a611f5c565b90506125006040830189611d50565b61250d6060830188611d50565b61251a6080830187611d50565b61252760a0830186612361565b61253460c0830185612361565b81810360e08301526125468184611f5c565b90509998505050505050505050565b600060a08201905061256a6000830188612361565b818103602083015261257c8187611f5c565b905081810360408301526125908186611d5f565b905081810360608301526125a48185611f5c565b90506125b36080830184612361565b9695505050505050565b60006040820190506125d26000830185612361565b6125df6020830184612361565b9392505050565b60006080820190506125fb6000830187612361565b6126086020830186612361565b818103604083015261261a8185611f5c565b90506126296060830184612361565b95945050505050565b6000604051905081810181811067ffffffffffffffff8211171561265957612658612a43565b5b8060405250919050565b600067ffffffffffffffff82111561267e5761267d612a43565b5b602082029050602081019050919050565b600067ffffffffffffffff8211156126aa576126a9612a43565b5b601f19601f8301169050602081019050919050565b6000819050602082019050919050565b6000819050602082019050919050565b6000819050602082019050919050565b6000819050602082019050919050565b600081519050919050565b600081519050919050565b600081519050919050565b600081519050919050565b600081519050919050565b6000602082019050919050565b6000602082019050919050565b6000602082019050919050565b6000602082019050919050565b600082825260208201905092915050565b600082825260208201905092915050565b600082825260208201905092915050565b600082825260208201905092915050565b600082825260208201905092915050565b600082825260208201905092915050565b60006127db826128ef565b91506127e6836128ef565b9250827fffffffffffffffffffffffffffffffffffffffffffffffffffffffffffffffff0382111561281b5761281a6129b6565b5b828201905092915050565b6000612831826128ef565b915061283c836128ef565b92508261284c5761284b6129e5565b5b828204905092915050565b6000612862826128ef565b915061286d836128ef565b9250817fffffffffffffffffffffffffffffffffffffffffffffffffffffffffffffffff04831182151516156128a6576128a56129b6565b5b828202905092915050565b60006128bc826128cf565b9050919050565b60008115159050919050565b600073ffffffffffffffffffffffffffffffffffffffff82169050919050565b6000819050919050565b82818337600083830152505050565b60005b8381101561292657808201518184015260208101905061290b565b83811115612935576000848401525b50505050565b6000600282049050600182168061295357607f821691505b6020821081141561296757612966612a14565b5b50919050565b6000612978826128ef565b91507fffffffffffffffffffffffffffffffffffffffffffffffffffffffffffffffff8214156129ab576129aa6129b6565b5b600182019050919050565b7f4e487b7100000000000000000000000000000000000000000000000000000000600052601160045260246000fd5b7f4e487b7100000000000000000000000000000000000000000000000000000000600052601260045260246000fd5b7f4e487b7100000000000000000000000000000000000000000000000000000000600052602260045260246000fd5b7f4e487b7100000000000000000000000000000000000000000000000000000000600052604160045260246000fd5b6000601f19601f8301169050919050565b612a8c816128b1565b8114612a9757600080fd5b50565b612aa3816128c3565b8114612aae57600080fd5b50565b612aba816128ef565b8114612ac557600080fd5b5056fea2646970667358221220b16988f4b3653b808c641228e812d0449e3a4287a74fd90092dc4327d2856d0d64736f6c63430008000033",
  "immutableReferences": {},
  "source": "// SPDX-License-Identifier: MIT\npragma solidity ^0.8.0;\n\ncontract Product {\n    struct Transaction {\n        uint256 txId;\n        address from;\n        address to;\n        uint date;\n    }\n\n    struct Review {\n        uint256 id;\n        uint date;\n        uint256 rating;\n        string comment;\n        address reviewer;\n    }\n\n    struct RawProduct {\n        string name;\n        bool isVerified;\n    }\n\n    struct Item {\n        uint256 id;\n        string title;\n        address manufacturer;\n        address currentOwner;\n        address lastOwner;\n        uint256 rating;\n        uint launchDate;\n        string image_url;\n    }\n\n    uint256[] public _itemIds;\n    mapping(uint256 => Item) public _items;\n    mapping(uint256 => Review) _reviews;\n    mapping(uint256 => Transaction) _transactions;\n\n    mapping(uint256 => uint256[]) _itemTransactions;\n    mapping(uint256 => uint256[]) _itemReviews;\n    mapping(uint256 => RawProduct[]) _itemRawProducts;\n\n    uint256 _nextTransactionId;\n    uint256 _nextReviewId;\n    event Add(\n        uint256 id,\n        string title,\n        RawProduct[] rawProducts,\n        string imageUrl,\n        address indexed _manufacturer,\n        uint addTime\n    );\n    event AddReview(\n        address indexed reviewer,\n        uint256 productId,\n        uint256 rating,\n        string comment,\n        uint reviewTime\n    );\n    event Transfer(\n        address indexed sender,\n        address indexed receiver,\n        uint256 productId,\n        uint transferTime\n    );\n\n    constructor() {\n        _nextTransactionId = 0;\n        _nextReviewId = 0;\n    }\n\n    function add(\n        uint256 _id,\n        string memory _title,\n        RawProduct[] memory _rawProducts,\n        string memory image_url\n    ) public returns (bool) {\n        address _manufacturer = msg.sender;\n        require(\n            _manufacturer != address(0),\n            \"Product::add: Manufacturer cannot be null\"\n        );\n        _items[_id] = Item({\n            id: _id,\n            title: _title,\n            manufacturer: _manufacturer,\n            currentOwner: _manufacturer,\n            lastOwner: address(0),\n            rating: 0,\n            launchDate: block.timestamp,\n            image_url: image_url\n        });\n        for (uint i = 0; i < _rawProducts.length; i++) {\n            _itemRawProducts[_id].push(_rawProducts[i]);\n        }\n        _itemIds.push(_id);\n        emit Add(\n            _id,\n            _title,\n            _rawProducts,\n            image_url,\n            msg.sender,\n            block.timestamp\n        );\n        return true;\n    }\n\n    function get(\n        uint256 _id\n    )\n        public\n        view\n        returns (\n            Item memory item,\n            Transaction[] memory transactions,\n            Review[] memory reviews,\n            RawProduct[] memory rawProducts\n        )\n    {\n        item = _items[_id];\n        transactions = new Transaction[](_itemTransactions[_id].length);\n        for (uint256 i = 0; i < _itemTransactions[_id].length; i++) {\n            transactions[i] = _transactions[_itemTransactions[_id][i]];\n        }\n        reviews = new Review[](_itemReviews[_id].length);\n        for (uint256 i = 0; i < _itemReviews[_id].length; i++) {\n            reviews[i] = _reviews[_itemReviews[_id][i]];\n        }\n        rawProducts = _itemRawProducts[_id];\n    }\n\n    function transfer(address _to, uint256 _id) public returns (bool) {\n        require(\n            _items[_id].currentOwner != address(0),\n            \"Product::transfer: Product does not exist\"\n        );\n        require(\n            _items[_id].currentOwner != _to,\n            \"Product::transfer: Cannot transfer to self\"\n        );\n        require(\n            _to != address(0),\n            \"Product::transfer: Cannot transfer to null address\"\n        );\n\n        _items[_id].lastOwner = _items[_id].currentOwner;\n        _items[_id].currentOwner = _to;\n\n        _transactions[_nextTransactionId] = Transaction({\n            txId: _nextTransactionId,\n            from: _items[_id].lastOwner,\n            to: _items[_id].currentOwner,\n            date: block.timestamp\n        });\n        _itemTransactions[_id].push(_nextTransactionId);\n        _nextTransactionId++;\n        emit Transfer(msg.sender, _to, _id, block.timestamp);\n        return true;\n    }\n\n    function addReview(\n        uint256 _id,\n        uint256 _rating,\n        string memory _comment\n    ) public returns (bool) {\n        require(\n            _items[_id].currentOwner == msg.sender,\n            \"Product::addReview: Only current owner can add review\"\n        );\n        _reviews[_nextReviewId] = Review({\n            id: _nextReviewId,\n            date: block.timestamp,\n            rating: _rating,\n            comment: _comment,\n            reviewer: msg.sender\n        });\n        _items[_id].rating =\n            (_items[_id].rating * _itemReviews[_id].length + _rating) /\n            (_itemReviews[_id].length + 1);\n        _itemReviews[_id].push(_nextReviewId);\n        _nextReviewId++;\n        emit AddReview(msg.sender, _id, _rating, _comment, block.timestamp);\n        return true;\n    }\n\n    function getItemIds() public view returns (uint256[] memory) {\n        return _itemIds;\n    }\n\n    function getProductsCount() public view returns (uint256) {\n        return _itemIds.length;\n    }\n\n    function getTransactionsCount() public view returns (uint256) {\n        return _nextTransactionId;\n    }\n\n    function getReviewsCount() public view returns (uint256) {\n        return _nextReviewId;\n    }\n}\n",
  "sourcePath": "/home/lequocvieet/Desktop/DATN/supply-chain/src/Smart-Contract/Contracts/Product.sol",
  "compiler": {
    "name": "solc",
    "version": "0.8.0+commit.c7dfd78e.Emscripten.clang"
  },
  "schemaVersion": "3.4.14",
  "updatedAt": "2023-06-12T14:26:19.407Z",
  "networkType": "ethereum",
  "devdoc": {
    "kind": "dev",
    "methods": {},
    "version": 1
  },
  "userdoc": {
    "kind": "user",
    "methods": {},
    "version": 1
  }
}