{
  "contractName": "Stakeholder",
  "abi": [
    {
      "inputs": [],
      "stateMutability": "nonpayable",
      "type": "constructor"
    },
    {
      "anonymous": false,
      "inputs": [
        {
          "indexed": false,
          "internalType": "string",
          "name": "name",
          "type": "string"
        },
        {
          "indexed": false,
          "internalType": "string",
          "name": "location",
          "type": "string"
        },
        {
          "indexed": false,
          "internalType": "string",
          "name": "role",
          "type": "string"
        },
        {
          "indexed": true,
          "internalType": "address",
          "name": "stakeHolder",
          "type": "address"
        },
        {
          "indexed": false,
          "internalType": "uint256",
          "name": "registerTime",
          "type": "uint256"
        }
      ],
      "name": "Register",
      "type": "event"
    },
    {
      "anonymous": false,
      "inputs": [
        {
          "indexed": true,
          "internalType": "address",
          "name": "admin",
          "type": "address"
        },
        {
          "indexed": true,
          "internalType": "address",
          "name": "verifier",
          "type": "address"
        },
        {
          "indexed": false,
          "internalType": "uint256",
          "name": "verifyTime",
          "type": "uint256"
        }
      ],
      "name": "Verify",
      "type": "event"
    },
    {
      "inputs": [],
      "name": "admin",
      "outputs": [
        {
          "internalType": "address",
          "name": "",
          "type": "address"
        }
      ],
      "stateMutability": "view",
      "type": "function",
      "constant": true
    },
    {
      "inputs": [
        {
          "internalType": "address",
          "name": "_account",
          "type": "address"
        }
      ],
      "name": "isAdmin",
      "outputs": [
        {
          "internalType": "bool",
          "name": "",
          "type": "bool"
        }
      ],
      "stateMutability": "view",
      "type": "function",
      "constant": true
    },
    {
      "inputs": [
        {
          "internalType": "string",
          "name": "_name",
          "type": "string"
        },
        {
          "internalType": "string",
          "name": "_location",
          "type": "string"
        },
        {
          "internalType": "string",
          "name": "_role",
          "type": "string"
        }
      ],
      "name": "register",
      "outputs": [
        {
          "internalType": "bool",
          "name": "",
          "type": "bool"
        }
      ],
      "stateMutability": "nonpayable",
      "type": "function"
    },
    {
      "inputs": [
        {
          "internalType": "address",
          "name": "_id",
          "type": "address"
        }
      ],
      "name": "get",
      "outputs": [
        {
          "components": [
            {
              "internalType": "address",
              "name": "id",
              "type": "address"
            },
            {
              "internalType": "string",
              "name": "name",
              "type": "string"
            },
            {
              "internalType": "string",
              "name": "location",
              "type": "string"
            },
            {
              "internalType": "string",
              "name": "role",
              "type": "string"
            },
            {
              "internalType": "bool",
              "name": "isVerified",
              "type": "bool"
            }
          ],
          "internalType": "struct Stakeholder.stakeholder",
          "name": "",
          "type": "tuple"
        }
      ],
      "stateMutability": "view",
      "type": "function",
      "constant": true
    },
    {
      "inputs": [
        {
          "internalType": "address",
          "name": "_operator",
          "type": "address"
        },
        {
          "internalType": "bool",
          "name": "_approved",
          "type": "bool"
        }
      ],
      "name": "setApprovalForAll",
      "outputs": [
        {
          "internalType": "bool",
          "name": "",
          "type": "bool"
        }
      ],
      "stateMutability": "nonpayable",
      "type": "function"
    },
    {
      "inputs": [
        {
          "internalType": "address",
          "name": "_owner",
          "type": "address"
        },
        {
          "internalType": "address",
          "name": "_operator",
          "type": "address"
        }
      ],
      "name": "isApprovedForAll",
      "outputs": [
        {
          "internalType": "bool",
          "name": "",
          "type": "bool"
        }
      ],
      "stateMutability": "view",
      "type": "function",
      "constant": true
    },
    {
      "inputs": [
        {
          "internalType": "address",
          "name": "_from",
          "type": "address"
        },
        {
          "internalType": "address",
          "name": "_to",
          "type": "address"
        },
        {
          "internalType": "uint256",
          "name": "_productId",
          "type": "uint256"
        }
      ],
      "name": "transferFrom",
      "outputs": [
        {
          "internalType": "bool",
          "name": "",
          "type": "bool"
        }
      ],
      "stateMutability": "nonpayable",
      "type": "function"
    },
    {
      "inputs": [
        {
          "internalType": "address",
          "name": "_id",
          "type": "address"
        }
      ],
      "name": "verify",
      "outputs": [
        {
          "internalType": "bool",
          "name": "",
          "type": "bool"
        }
      ],
      "stateMutability": "nonpayable",
      "type": "function"
    },
    {
      "inputs": [
        {
          "internalType": "address",
          "name": "_id",
          "type": "address"
        }
      ],
      "name": "isVerified",
      "outputs": [
        {
          "internalType": "bool",
          "name": "",
          "type": "bool"
        }
      ],
      "stateMutability": "view",
      "type": "function",
      "constant": true
    },
    {
      "inputs": [
        {
          "internalType": "address",
          "name": "_id",
          "type": "address"
        }
      ],
      "name": "getRole",
      "outputs": [
        {
          "internalType": "string",
          "name": "",
          "type": "string"
        }
      ],
      "stateMutability": "view",
      "type": "function",
      "constant": true
    },
    {
      "inputs": [],
      "name": "getAddresses",
      "outputs": [
        {
          "internalType": "address[]",
          "name": "",
          "type": "address[]"
        }
      ],
      "stateMutability": "view",
      "type": "function",
      "constant": true
    }
  ],
  "bytecode": "0x608060405234801561001057600080fd5b5033806000806101000a81548173ffffffffffffffffffffffffffffffffffffffff021916908373ffffffffffffffffffffffffffffffffffffffff16021790555050611d97806100626000396000f3fe608060405234801561001057600080fd5b50600436106100a95760003560e01c8063a22cb46511610071578063a22cb4651461019e578063a39fac12146101ce578063b9209e33146101ec578063c2bc2efc1461021c578063e985e9c51461024c578063f851a4401461027c576100a9565b806323b872dd146100ae57806324d7806c146100de578063442767331461010e5780634cd08d031461013e57806363a9c3d71461016e575b600080fd5b6100c860048036038101906100c39190611370565b61029a565b6040516100d59190611976565b60405180910390f35b6100f860048036038101906100f3919061130b565b61054d565b6040516101059190611976565b60405180910390f35b6101286004803603810190610123919061130b565b6105a6565b6040516101359190611991565b60405180910390f35b610158600480360381019061015391906113fb565b61067a565b6040516101659190611976565b60405180910390f35b6101886004803603810190610183919061130b565b61094e565b6040516101959190611976565b60405180910390f35b6101b860048036038101906101b391906113bf565b610a71565b6040516101c59190611976565b60405180910390f35b6101d6610bf0565b6040516101e39190611954565b60405180910390f35b6102066004803603810190610201919061130b565b610c7e565b6040516102139190611976565b60405180910390f35b6102366004803603810190610231919061130b565b610cd7565b6040516102439190611aed565b60405180910390f35b61026660048036038101906102619190611334565b6110c2565b6040516102739190611976565b60405180910390f35b610284611156565b6040516102919190611939565b60405180910390f35b600083826000600260008473ffffffffffffffffffffffffffffffffffffffff1673ffffffffffffffffffffffffffffffffffffffff168152602001908152602001600020600083815260200190815260200160002060009054906101000a900460ff169050600061030c84336110c2565b8061034257508373ffffffffffffffffffffffffffffffffffffffff163373ffffffffffffffffffffffffffffffffffffffff16145b905081801561034e5750805b61038d576040517f08c379a000000000000000000000000000000000000000000000000000000000815260040161038490611aad565b60405180910390fd5b8673ffffffffffffffffffffffffffffffffffffffff168873ffffffffffffffffffffffffffffffffffffffff1614156103fc576040517f08c379a00000000000000000000000000000000000000000000000000000000081526004016103f390611a6d565b60405180910390fd5b600073ffffffffffffffffffffffffffffffffffffffff168773ffffffffffffffffffffffffffffffffffffffff16141561046c576040517f08c379a000000000000000000000000000000000000000000000000000000000815260040161046390611a2d565b60405180910390fd5b6000600260008a73ffffffffffffffffffffffffffffffffffffffff1673ffffffffffffffffffffffffffffffffffffffff168152602001908152602001600020600088815260200190815260200160002060006101000a81548160ff0219169083151502179055506001600260008973ffffffffffffffffffffffffffffffffffffffff1673ffffffffffffffffffffffffffffffffffffffff168152602001908152602001600020600088815260200190815260200160002060006101000a81548160ff02191690831515021790555060019450505050509392505050565b60008060009054906101000a900473ffffffffffffffffffffffffffffffffffffffff1673ffffffffffffffffffffffffffffffffffffffff168273ffffffffffffffffffffffffffffffffffffffff16149050919050565b6060600160008373ffffffffffffffffffffffffffffffffffffffff1673ffffffffffffffffffffffffffffffffffffffff16815260200190815260200160002060030180546105f590611c7b565b80601f016020809104026020016040519081016040528092919081815260200182805461062190611c7b565b801561066e5780601f106106435761010080835404028352916020019161066e565b820191906000526020600020905b81548152906001019060200180831161065157829003601f168201915b50505050509050919050565b60008073ffffffffffffffffffffffffffffffffffffffff16600160003373ffffffffffffffffffffffffffffffffffffffff1673ffffffffffffffffffffffffffffffffffffffff16815260200190815260200160002060000160009054906101000a900473ffffffffffffffffffffffffffffffffffffffff1673ffffffffffffffffffffffffffffffffffffffff161461074c576040517f08c379a000000000000000000000000000000000000000000000000000000000815260040161074390611a8d565b60405180910390fd5b6040518060a001604052803373ffffffffffffffffffffffffffffffffffffffff16815260200185815260200184815260200183815260200160001515815250600160003373ffffffffffffffffffffffffffffffffffffffff1673ffffffffffffffffffffffffffffffffffffffff16815260200190815260200160002060008201518160000160006101000a81548173ffffffffffffffffffffffffffffffffffffffff021916908373ffffffffffffffffffffffffffffffffffffffff160217905550602082015181600101908051906020019061082e92919061117a565b50604082015181600201908051906020019061084b92919061117a565b50606082015181600301908051906020019061086892919061117a565b5060808201518160040160006101000a81548160ff0219169083151502179055509050506004339080600181540180825580915050600190039060005260206000200160009091909190916101000a81548173ffffffffffffffffffffffffffffffffffffffff021916908373ffffffffffffffffffffffffffffffffffffffff1602179055503373ffffffffffffffffffffffffffffffffffffffff167f9cf6365b2c5ba4fb1ce1508411adce9c5fb9989ac8ff857bdc8872e010c42f438585854260405161093b94939291906119b3565b60405180910390a2600190509392505050565b60008060009054906101000a900473ffffffffffffffffffffffffffffffffffffffff1673ffffffffffffffffffffffffffffffffffffffff163373ffffffffffffffffffffffffffffffffffffffff16146109a957600080fd5b60018060008473ffffffffffffffffffffffffffffffffffffffff1673ffffffffffffffffffffffffffffffffffffffff16815260200190815260200160002060040160006101000a81548160ff0219169083151502179055508173ffffffffffffffffffffffffffffffffffffffff163373ffffffffffffffffffffffffffffffffffffffff167f4aa983eb91154bcac20e42c69efe6948891ea1fcf772b3ff6507f41309a0f33e42604051610a609190611b0f565b60405180910390a360019050919050565b60008273ffffffffffffffffffffffffffffffffffffffff163373ffffffffffffffffffffffffffffffffffffffff161415610ae2576040517f08c379a0000000000000000000000000000000000000000000000000000000008152600401610ad990611a0d565b60405180910390fd5b600073ffffffffffffffffffffffffffffffffffffffff168373ffffffffffffffffffffffffffffffffffffffff161415610b52576040517f08c379a0000000000000000000000000000000000000000000000000000000008152600401610b4990611acd565b60405180910390fd5b81600360003373ffffffffffffffffffffffffffffffffffffffff1673ffffffffffffffffffffffffffffffffffffffff16815260200190815260200160002060008573ffffffffffffffffffffffffffffffffffffffff1673ffffffffffffffffffffffffffffffffffffffff16815260200190815260200160002060006101000a81548160ff0219169083151502179055506001905092915050565b60606004805480602002602001604051908101604052809291908181526020018280548015610c7457602002820191906000526020600020905b8160009054906101000a900473ffffffffffffffffffffffffffffffffffffffff1673ffffffffffffffffffffffffffffffffffffffff1681526020019060010190808311610c2a575b5050505050905090565b6000600160008373ffffffffffffffffffffffffffffffffffffffff1673ffffffffffffffffffffffffffffffffffffffff16815260200190815260200160002060040160009054906101000a900460ff169050919050565b610cdf611200565b81600160003373ffffffffffffffffffffffffffffffffffffffff1673ffffffffffffffffffffffffffffffffffffffff16815260200190815260200160002060000160009054906101000a900473ffffffffffffffffffffffffffffffffffffffff1673ffffffffffffffffffffffffffffffffffffffff168173ffffffffffffffffffffffffffffffffffffffff161480610e0a5750600073ffffffffffffffffffffffffffffffffffffffff16600160003373ffffffffffffffffffffffffffffffffffffffff1673ffffffffffffffffffffffffffffffffffffffff16815260200190815260200160002060000160009054906101000a900473ffffffffffffffffffffffffffffffffffffffff1673ffffffffffffffffffffffffffffffffffffffff16145b610e49576040517f08c379a0000000000000000000000000000000000000000000000000000000008152600401610e4090611a4d565b60405180910390fd5b600160008473ffffffffffffffffffffffffffffffffffffffff1673ffffffffffffffffffffffffffffffffffffffff1681526020019081526020016000206040518060a00160405290816000820160009054906101000a900473ffffffffffffffffffffffffffffffffffffffff1673ffffffffffffffffffffffffffffffffffffffff1673ffffffffffffffffffffffffffffffffffffffff168152602001600182018054610ef990611c7b565b80601f0160208091040260200160405190810160405280929190818152602001828054610f2590611c7b565b8015610f725780601f10610f4757610100808354040283529160200191610f72565b820191906000526020600020905b815481529060010190602001808311610f5557829003601f168201915b50505050508152602001600282018054610f8b90611c7b565b80601f0160208091040260200160405190810160405280929190818152602001828054610fb790611c7b565b80156110045780601f10610fd957610100808354040283529160200191611004565b820191906000526020600020905b815481529060010190602001808311610fe757829003601f168201915b5050505050815260200160038201805461101d90611c7b565b80601f016020809104026020016040519081016040528092919081815260200182805461104990611c7b565b80156110965780601f1061106b57610100808354040283529160200191611096565b820191906000526020600020905b81548152906001019060200180831161107957829003601f168201915b505050505081526020016004820160009054906101000a900460ff161515151581525050915050919050565b6000600360008473ffffffffffffffffffffffffffffffffffffffff1673ffffffffffffffffffffffffffffffffffffffff16815260200190815260200160002060008373ffffffffffffffffffffffffffffffffffffffff1673ffffffffffffffffffffffffffffffffffffffff16815260200190815260200160002060009054906101000a900460ff16905092915050565b60008054906101000a900473ffffffffffffffffffffffffffffffffffffffff1681565b82805461118690611c7b565b90600052602060002090601f0160209004810192826111a857600085556111ef565b82601f106111c157805160ff19168380011785556111ef565b828001600101855582156111ef579182015b828111156111ee5782518255916020019190600101906111d3565b5b5090506111fc9190611247565b5090565b6040518060a00160405280600073ffffffffffffffffffffffffffffffffffffffff1681526020016060815260200160608152602001606081526020016000151581525090565b5b80821115611260576000816000905550600101611248565b5090565b600061127761127284611b5b565b611b2a565b90508281526020810184848401111561128f57600080fd5b61129a848285611c39565b509392505050565b6000813590506112b181611d1c565b92915050565b6000813590506112c681611d33565b92915050565b600082601f8301126112dd57600080fd5b81356112ed848260208601611264565b91505092915050565b60008135905061130581611d4a565b92915050565b60006020828403121561131d57600080fd5b600061132b848285016112a2565b91505092915050565b6000806040838503121561134757600080fd5b6000611355858286016112a2565b9250506020611366858286016112a2565b9150509250929050565b60008060006060848603121561138557600080fd5b6000611393868287016112a2565b93505060206113a4868287016112a2565b92505060406113b5868287016112f6565b9150509250925092565b600080604083850312156113d257600080fd5b60006113e0858286016112a2565b92505060206113f1858286016112b7565b9150509250929050565b60008060006060848603121561141057600080fd5b600084013567ffffffffffffffff81111561142a57600080fd5b611436868287016112cc565b935050602084013567ffffffffffffffff81111561145357600080fd5b61145f868287016112cc565b925050604084013567ffffffffffffffff81111561147c57600080fd5b611488868287016112cc565b9150509250925092565b600061149e83836114aa565b60208301905092915050565b6114b381611bf1565b82525050565b6114c281611bf1565b82525050565b60006114d382611b9b565b6114dd8185611bbe565b93506114e883611b8b565b8060005b838110156115195781516115008882611492565b975061150b83611bb1565b9250506001810190506114ec565b5085935050505092915050565b61152f81611c03565b82525050565b61153e81611c03565b82525050565b600061154f82611ba6565b6115598185611bcf565b9350611569818560208601611c48565b61157281611d0b565b840191505092915050565b600061158882611ba6565b6115928185611be0565b93506115a2818560208601611c48565b6115ab81611d0b565b840191505092915050565b60006115c3603c83611be0565b91507f5374616b65686f6c6465723a3a736574417070726f76616c466f72416c6c3a2060008301527f43616e6e6f742073657420617070726f76616c20666f722073656c66000000006020830152604082019050919050565b6000611629603a83611be0565b91507f5374616b65686f6c6465723a3a7472616e7366657246726f6d3a2043616e6e6f60008301527f74207472616e7366657220746f206e756c6c20616464726573730000000000006020830152604082019050919050565b600061168f602983611be0565b91507f4f6e6c79207374616b65686f6c6465722063616e20616363657373207468697360008301527f2066756e6374696f6e00000000000000000000000000000000000000000000006020830152604082019050919050565b60006116f5603283611be0565b91507f5374616b65686f6c6465723a3a7472616e7366657246726f6d3a2043616e6e6f60008301527f74207472616e7366657220746f2073656c6600000000000000000000000000006020830152604082019050919050565b600061175b603583611be0565b91507f5374616b65686f6c6465723a3a72656769737465723a205374616b65686f6c6460008301527f657220616c7265616479207265676973746572656400000000000000000000006020830152604082019050919050565b60006117c1602f83611be0565b91507f4f6e6c79206f776e6572206f7220617070726f7665642063616e20616363657360008301527f7320746869732066756e6374696f6e00000000000000000000000000000000006020830152604082019050919050565b6000611827604483611be0565b91507f5374616b65686f6c6465723a3a736574417070726f76616c466f72416c6c3a2060008301527f43616e6e6f742073657420617070726f76616c20666f72206e756c6c2061646460208301527f72657373000000000000000000000000000000000000000000000000000000006040830152606082019050919050565b600060a0830160008301516118be60008601826114aa565b50602083015184820360208601526118d68282611544565b915050604083015184820360408601526118f08282611544565b9150506060830151848203606086015261190a8282611544565b915050608083015161191f6080860182611526565b508091505092915050565b61193381611c2f565b82525050565b600060208201905061194e60008301846114b9565b92915050565b6000602082019050818103600083015261196e81846114c8565b905092915050565b600060208201905061198b6000830184611535565b92915050565b600060208201905081810360008301526119ab818461157d565b905092915050565b600060808201905081810360008301526119cd818761157d565b905081810360208301526119e1818661157d565b905081810360408301526119f5818561157d565b9050611a04606083018461192a565b95945050505050565b60006020820190508181036000830152611a26816115b6565b9050919050565b60006020820190508181036000830152611a468161161c565b9050919050565b60006020820190508181036000830152611a6681611682565b9050919050565b60006020820190508181036000830152611a86816116e8565b9050919050565b60006020820190508181036000830152611aa68161174e565b9050919050565b60006020820190508181036000830152611ac6816117b4565b9050919050565b60006020820190508181036000830152611ae68161181a565b9050919050565b60006020820190508181036000830152611b0781846118a6565b905092915050565b6000602082019050611b24600083018461192a565b92915050565b6000604051905081810181811067ffffffffffffffff82111715611b5157611b50611cdc565b5b8060405250919050565b600067ffffffffffffffff821115611b7657611b75611cdc565b5b601f19601f8301169050602081019050919050565b6000819050602082019050919050565b600081519050919050565b600081519050919050565b6000602082019050919050565b600082825260208201905092915050565b600082825260208201905092915050565b600082825260208201905092915050565b6000611bfc82611c0f565b9050919050565b60008115159050919050565b600073ffffffffffffffffffffffffffffffffffffffff82169050919050565b6000819050919050565b82818337600083830152505050565b60005b83811015611c66578082015181840152602081019050611c4b565b83811115611c75576000848401525b50505050565b60006002820490506001821680611c9357607f821691505b60208210811415611ca757611ca6611cad565b5b50919050565b7f4e487b7100000000000000000000000000000000000000000000000000000000600052602260045260246000fd5b7f4e487b7100000000000000000000000000000000000000000000000000000000600052604160045260246000fd5b6000601f19601f8301169050919050565b611d2581611bf1565b8114611d3057600080fd5b50565b611d3c81611c03565b8114611d4757600080fd5b50565b611d5381611c2f565b8114611d5e57600080fd5b5056fea2646970667358221220ee0579efbebe6146ef5f29e1ac655d2b66ff514922ff569d8eda3c52ff1db01b64736f6c63430008000033",
  "immutableReferences": {},
  "source": "// SPDX-License-Identifier: MIT\npragma solidity ^0.8.0;\nimport \"./Admin.sol\";\n\ncontract Stakeholder is Admin {\n    struct stakeholder {\n        address id;\n        string name;\n        string location;\n        string role;\n        bool isVerified;\n    }\n\n    mapping(address => stakeholder) _stakeholders;\n    mapping(address => mapping(uint256 => bool)) _stakeholderProductOwnership;\n    mapping(address => mapping(address => bool)) _operatorApprovals;\n    address[] _stakeholderAddresses;\n    event Register(\n        string name,\n        string location,\n        string role,\n        address indexed stakeHolder,\n        uint registerTime\n    );\n    event Verify(\n        address indexed admin,\n        address indexed verifier,\n        uint verifyTime\n    );\n\n    constructor() Admin(msg.sender) {}\n\n    function register(\n        string memory _name,\n        string memory _location,\n        string memory _role\n    ) public virtual returns (bool) {\n        require(\n            _stakeholders[msg.sender].id == address(0),\n            \"Stakeholder::register: Stakeholder already registered\"\n        );\n        _stakeholders[msg.sender] = stakeholder(\n            msg.sender,\n            _name,\n            _location,\n            _role,\n            false\n        );\n        _stakeholderAddresses.push(msg.sender);\n        emit Register(_name, _location, _role, msg.sender, block.timestamp);\n        return true;\n    }\n\n    function get(\n        address _id\n    ) public view onlyStakeholder(_id) returns (stakeholder memory) {\n        return _stakeholders[_id];\n    }\n\n    function setApprovalForAll(\n        address _operator,\n        bool _approved\n    ) public virtual returns (bool) {\n        require(\n            msg.sender != _operator,\n            \"Stakeholder::setApprovalForAll: Cannot set approval for self\"\n        );\n        require(\n            _operator != address(0),\n            \"Stakeholder::setApprovalForAll: Cannot set approval for null address\"\n        );\n        _operatorApprovals[msg.sender][_operator] = _approved;\n        return true;\n    }\n\n    function isApprovedForAll(\n        address _owner,\n        address _operator\n    ) public view virtual returns (bool) {\n        return _operatorApprovals[_owner][_operator];\n    }\n\n    function transferFrom(\n        address _from,\n        address _to,\n        uint256 _productId\n    ) public virtual onlyOwnerOrApproved(_from, _productId) returns (bool) {\n        require(\n            _from != _to,\n            \"Stakeholder::transferFrom: Cannot transfer to self\"\n        );\n        require(\n            _to != address(0),\n            \"Stakeholder::transferFrom: Cannot transfer to null address\"\n        );\n        _stakeholderProductOwnership[_from][_productId] = false;\n        _stakeholderProductOwnership[_to][_productId] = true;\n        return true;\n    }\n\n    function verify(address _id) public onlyAdmin returns (bool) {\n        _stakeholders[_id].isVerified = true;\n        emit Verify(msg.sender, _id, block.timestamp);\n        return true;\n    }\n\n    function isVerified(address _id) public view returns (bool) {\n        return _stakeholders[_id].isVerified;\n    }\n\n    function getRole(address _id) public view returns (string memory) {\n        return _stakeholders[_id].role;\n    }\n\n    function getAddresses() public view returns (address[] memory) {\n        return _stakeholderAddresses;\n    }\n\n    modifier onlyStakeholder(address _id) {\n        require(\n            _id == _stakeholders[msg.sender].id ||\n                _stakeholders[msg.sender].id == address(0),\n            \"Only stakeholder can access this function\"\n        );\n        _;\n    }\n\n    modifier onlyOwnerOrApproved(address _from, uint256 _productId) {\n        bool _from_the_product_owner = _stakeholderProductOwnership[_from][\n            _productId\n        ];\n        bool _approved_or_product_owner = isApprovedForAll(_from, msg.sender) ||\n            msg.sender == _from;\n\n        require(\n            _from_the_product_owner && _approved_or_product_owner,\n            \"Only owner or approved can access this function\"\n        );\n        _;\n    }\n}\n",
  "sourcePath": "/home/lequocvieet/Desktop/DATN/supply-chain/src/Smart-Contract/Contracts/Stakeholder.sol",
  "compiler": {
    "name": "solc",
    "version": "0.8.0+commit.c7dfd78e.Emscripten.clang"
  },
  "schemaVersion": "3.4.14",
  "updatedAt": "2023-06-10T02:27:49.011Z",
  "networkType": "ethereum",
  "devdoc": {
    "kind": "dev",
    "methods": {},
    "version": 1
  },
  "userdoc": {
    "kind": "user",
    "methods": {},
    "version": 1
  }
}